{
	"basic/Divergence.sol": {
		"Divergence": {
			"abi": [
				{
					"anonymous": false,
					"inputs": [
						{
							"indexed": true,
							"internalType": "address",
							"name": "addr",
							"type": "address"
						},
						{
							"indexed": false,
							"internalType": "uint8",
							"name": "opt",
							"type": "uint8"
						},
						{
							"indexed": false,
							"internalType": "uint8",
							"name": "returnVal",
							"type": "uint8"
						}
					],
					"name": "WinnerLog",
					"type": "event"
				},
				{
					"inputs": [
						{
							"internalType": "uint8",
							"name": "_opt",
							"type": "uint8"
						}
					],
					"name": "choose",
					"outputs": [],
					"stateMutability": "nonpayable",
					"type": "function"
				},
				{
					"inputs": [
						{
							"internalType": "address",
							"name": "_addr",
							"type": "address"
						}
					],
					"name": "isPlayer",
					"outputs": [
						{
							"internalType": "bool",
							"name": "",
							"type": "bool"
						}
					],
					"stateMutability": "view",
					"type": "function"
				},
				{
					"inputs": [
						{
							"internalType": "string",
							"name": "_name",
							"type": "string"
						}
					],
					"name": "register",
					"outputs": [],
					"stateMutability": "nonpayable",
					"type": "function"
				},
				{
					"inputs": [],
					"name": "winner",
					"outputs": [
						{
							"internalType": "string",
							"name": "",
							"type": "string"
						},
						{
							"internalType": "uint8",
							"name": "",
							"type": "uint8"
						},
						{
							"internalType": "uint8",
							"name": "",
							"type": "uint8"
						},
						{
							"internalType": "uint256",
							"name": "",
							"type": "uint256"
						}
					],
					"stateMutability": "view",
					"type": "function"
				}
			],
			"devdoc": {
				"kind": "dev",
				"methods": {},
				"version": 1
			},
			"evm": {
				"assembly": "    /* \"basic/Divergence.sol\":1674:4675  contract Divergence is IDivergence {... */\n  mstore(0x40, 0x80)\n  callvalue\n  dup1\n  iszero\n  tag_1\n  jumpi\n  0x00\n  dup1\n  revert\ntag_1:\n  pop\n  dataSize(sub_0)\n  dup1\n  dataOffset(sub_0)\n  0x00\n  codecopy\n  0x00\n  return\nstop\n\nsub_0: assembly {\n        /* \"basic/Divergence.sol\":1674:4675  contract Divergence is IDivergence {... */\n      mstore(0x40, 0x80)\n      callvalue\n      dup1\n      iszero\n      tag_1\n      jumpi\n      0x00\n      dup1\n      revert\n    tag_1:\n      pop\n      jumpi(tag_2, lt(calldatasize, 0x04))\n      shr(0xe0, calldataload(0x00))\n      dup1\n      0x09c95e10\n      eq\n      tag_3\n      jumpi\n      dup1\n      0xdfbf53ae\n      eq\n      tag_4\n      jumpi\n      dup1\n      0xf2c298be\n      eq\n      tag_5\n      jumpi\n      dup1\n      0xf94e349d\n      eq\n      tag_6\n      jumpi\n    tag_2:\n      0x00\n      dup1\n      revert\n        /* \"basic/Divergence.sol\":4477:4670  function isPlayer(address _addr) public view returns (bool) {... */\n    tag_3:\n      tag_7\n      0x04\n      dup1\n      calldatasize\n      sub\n      dup2\n      add\n      swap1\n      tag_8\n      swap2\n      swap1\n      tag_9\n      jump\t// in\n    tag_8:\n      tag_10\n      jump\t// in\n    tag_7:\n      mload(0x40)\n      tag_11\n      swap2\n      swap1\n      tag_12\n      jump\t// in\n    tag_11:\n      mload(0x40)\n      dup1\n      swap2\n      sub\n      swap1\n      return\n        /* \"basic/Divergence.sol\":3955:4433  function winner() override external view returns (string memory, uint8, uint8, uint256) {... */\n    tag_4:\n      tag_13\n      tag_14\n      jump\t// in\n    tag_13:\n      mload(0x40)\n      tag_15\n      swap5\n      swap4\n      swap3\n      swap2\n      swap1\n      tag_16\n      jump\t// in\n    tag_15:\n      mload(0x40)\n      dup1\n      swap2\n      sub\n      swap1\n      return\n        /* \"basic/Divergence.sol\":2052:2571  function register(string memory _name) override  external {... */\n    tag_5:\n      tag_17\n      0x04\n      dup1\n      calldatasize\n      sub\n      dup2\n      add\n      swap1\n      tag_18\n      swap2\n      swap1\n      tag_19\n      jump\t// in\n    tag_18:\n      tag_20\n      jump\t// in\n    tag_17:\n      stop\n        /* \"basic/Divergence.sol\":2668:3852  function choose(uint8 _opt) override external {... */\n    tag_6:\n      tag_21\n      0x04\n      dup1\n      calldatasize\n      sub\n      dup2\n      add\n      swap1\n      tag_22\n      swap2\n      swap1\n      tag_23\n      jump\t// in\n    tag_22:\n      tag_24\n      jump\t// in\n    tag_21:\n      stop\n        /* \"basic/Divergence.sol\":4477:4670  function isPlayer(address _addr) public view returns (bool) {... */\n    tag_10:\n        /* \"basic/Divergence.sol\":4531:4535  bool */\n      0x00\n        /* \"basic/Divergence.sol\":4563:4573  playerList */\n      0x01\n        /* \"basic/Divergence.sol\":4574:4575  0 */\n      0x00\n        /* \"basic/Divergence.sol\":4563:4576  playerList[0] */\n      0x02\n      dup2\n      lt\n      tag_26\n      jumpi\n      tag_27\n      tag_28\n      jump\t// in\n    tag_27:\n    tag_26:\n      0x04\n      mul\n      add\n        /* \"basic/Divergence.sol\":4563:4581  playerList[0].user */\n      0x00\n      add\n      0x00\n      swap1\n      sload\n      swap1\n      0x0100\n      exp\n      swap1\n      div\n      0xffffffffffffffffffffffffffffffffffffffff\n      and\n        /* \"basic/Divergence.sol\":4554:4581  _addr == playerList[0].user */\n      0xffffffffffffffffffffffffffffffffffffffff\n      and\n        /* \"basic/Divergence.sol\":4554:4559  _addr */\n      dup3\n        /* \"basic/Divergence.sol\":4554:4581  _addr == playerList[0].user */\n      0xffffffffffffffffffffffffffffffffffffffff\n      and\n      eq\n        /* \"basic/Divergence.sol\":4554:4612  _addr == playerList[0].user || _addr == playerList[1].user */\n      dup1\n      tag_30\n      jumpi\n      pop\n        /* \"basic/Divergence.sol\":4594:4604  playerList */\n      0x01\n        /* \"basic/Divergence.sol\":4605:4606  1 */\n      dup1\n        /* \"basic/Divergence.sol\":4594:4607  playerList[1] */\n      0x02\n      dup2\n      lt\n      tag_31\n      jumpi\n      tag_32\n      tag_28\n      jump\t// in\n    tag_32:\n    tag_31:\n      0x04\n      mul\n      add\n        /* \"basic/Divergence.sol\":4594:4612  playerList[1].user */\n      0x00\n      add\n      0x00\n      swap1\n      sload\n      swap1\n      0x0100\n      exp\n      swap1\n      div\n      0xffffffffffffffffffffffffffffffffffffffff\n      and\n        /* \"basic/Divergence.sol\":4585:4612  _addr == playerList[1].user */\n      0xffffffffffffffffffffffffffffffffffffffff\n      and\n        /* \"basic/Divergence.sol\":4585:4590  _addr */\n      dup3\n        /* \"basic/Divergence.sol\":4585:4612  _addr == playerList[1].user */\n      0xffffffffffffffffffffffffffffffffffffffff\n      and\n      eq\n        /* \"basic/Divergence.sol\":4554:4612  _addr == playerList[0].user || _addr == playerList[1].user */\n    tag_30:\n        /* \"basic/Divergence.sol\":4550:4639  if (_addr == playerList[0].user || _addr == playerList[1].user) ... */\n      iszero\n      tag_34\n      jumpi\n        /* \"basic/Divergence.sol\":4635:4639  true */\n      0x01\n        /* \"basic/Divergence.sol\":4628:4639  return true */\n      swap1\n      pop\n      jump(tag_25)\n        /* \"basic/Divergence.sol\":4550:4639  if (_addr == playerList[0].user || _addr == playerList[1].user) ... */\n    tag_34:\n        /* \"basic/Divergence.sol\":4657:4662  false */\n      0x00\n        /* \"basic/Divergence.sol\":4650:4662  return false */\n      swap1\n      pop\n        /* \"basic/Divergence.sol\":4477:4670  function isPlayer(address _addr) public view returns (bool) {... */\n    tag_25:\n      swap2\n      swap1\n      pop\n      jump\t// out\n        /* \"basic/Divergence.sol\":3955:4433  function winner() override external view returns (string memory, uint8, uint8, uint256) {... */\n    tag_14:\n        /* \"basic/Divergence.sol\":4005:4018  string memory */\n      0x60\n        /* \"basic/Divergence.sol\":4020:4025  uint8 */\n      0x00\n        /* \"basic/Divergence.sol\":4027:4032  uint8 */\n      dup1\n        /* \"basic/Divergence.sol\":4034:4041  uint256 */\n      0x00\n        /* \"basic/Divergence.sol\":4059:4069  isFinished */\n      0x09\n      0x00\n      swap1\n      sload\n      swap1\n      0x0100\n      exp\n      swap1\n      div\n      0xff\n      and\n        /* \"basic/Divergence.sol\":4054:4127  if (!isFinished) {... */\n      tag_36\n      jumpi\n        /* \"basic/Divergence.sol\":4098:4101  255 */\n      0xff\n        /* \"basic/Divergence.sol\":4103:4106  255 */\n      dup1\n        /* \"basic/Divergence.sol\":4108:4114  666666 */\n      0x0a2c2a\n        /* \"basic/Divergence.sol\":4086:4115  return (\"\", 255, 255, 666666) */\n      mload(0x40)\n      dup1\n      0x20\n      add\n      0x40\n      mstore\n      dup1\n      0x00\n      dup2\n      mstore\n      pop\n      swap3\n      swap2\n      swap1\n      swap4\n      pop\n      swap4\n      pop\n      swap4\n      pop\n      swap4\n      pop\n      jump(tag_35)\n        /* \"basic/Divergence.sol\":4054:4127  if (!isFinished) {... */\n    tag_36:\n        /* \"basic/Divergence.sol\":4139:4154  uint8 lossIndex */\n      0x00\n        /* \"basic/Divergence.sol\":4209:4210  0 */\n      dup1\n        /* \"basic/Divergence.sol\":4194:4205  winnerIndex */\n      0x09\n      0x01\n      swap1\n      sload\n      swap1\n      0x0100\n      exp\n      swap1\n      div\n      0xff\n      and\n        /* \"basic/Divergence.sol\":4194:4210  winnerIndex == 0 */\n      0xff\n      and\n      sub\n        /* \"basic/Divergence.sol\":4191:4225  if(winnerIndex == 0) lossIndex = 1 */\n      tag_37\n      jumpi\n        /* \"basic/Divergence.sol\":4224:4225  1 */\n      0x01\n        /* \"basic/Divergence.sol\":4212:4225  lossIndex = 1 */\n      swap1\n      pop\n        /* \"basic/Divergence.sol\":4191:4225  if(winnerIndex == 0) lossIndex = 1 */\n    tag_37:\n        /* \"basic/Divergence.sol\":4260:4270  playerList */\n      0x01\n        /* \"basic/Divergence.sol\":4271:4282  winnerIndex */\n      0x09\n      0x01\n      swap1\n      sload\n      swap1\n      0x0100\n      exp\n      swap1\n      div\n      0xff\n      and\n        /* \"basic/Divergence.sol\":4260:4283  playerList[winnerIndex] */\n      0xff\n      and\n      0x02\n      dup2\n      lt\n      tag_38\n      jumpi\n      tag_39\n      tag_28\n      jump\t// in\n    tag_39:\n    tag_38:\n      0x04\n      mul\n      add\n        /* \"basic/Divergence.sol\":4260:4288  playerList[winnerIndex].name */\n      0x01\n      add\n        /* \"basic/Divergence.sol\":4303:4313  playerList */\n      0x01\n        /* \"basic/Divergence.sol\":4314:4325  winnerIndex */\n      0x09\n      0x01\n      swap1\n      sload\n      swap1\n      0x0100\n      exp\n      swap1\n      div\n      0xff\n      and\n        /* \"basic/Divergence.sol\":4303:4326  playerList[winnerIndex] */\n      0xff\n      and\n      0x02\n      dup2\n      lt\n      tag_41\n      jumpi\n      tag_42\n      tag_28\n      jump\t// in\n    tag_42:\n    tag_41:\n      0x04\n      mul\n      add\n        /* \"basic/Divergence.sol\":4303:4330  playerList[winnerIndex].opt */\n      0x02\n      add\n      0x00\n      swap1\n      sload\n      swap1\n      0x0100\n      exp\n      swap1\n      div\n      0xff\n      and\n        /* \"basic/Divergence.sol\":4345:4355  playerList */\n      0x01\n        /* \"basic/Divergence.sol\":4356:4365  lossIndex */\n      dup4\n        /* \"basic/Divergence.sol\":4345:4366  playerList[lossIndex] */\n      0xff\n      and\n      0x02\n      dup2\n      lt\n      tag_44\n      jumpi\n      tag_45\n      tag_28\n      jump\t// in\n    tag_45:\n    tag_44:\n      0x04\n      mul\n      add\n        /* \"basic/Divergence.sol\":4345:4370  playerList[lossIndex].opt */\n      0x02\n      add\n      0x00\n      swap1\n      sload\n      swap1\n      0x0100\n      exp\n      swap1\n      div\n      0xff\n      and\n        /* \"basic/Divergence.sol\":4385:4395  playerList */\n      0x01\n        /* \"basic/Divergence.sol\":4396:4407  winnerIndex */\n      0x09\n      0x01\n      swap1\n      sload\n      swap1\n      0x0100\n      exp\n      swap1\n      div\n      0xff\n      and\n        /* \"basic/Divergence.sol\":4385:4408  playerList[winnerIndex] */\n      0xff\n      and\n      0x02\n      dup2\n      lt\n      tag_47\n      jumpi\n      tag_48\n      tag_28\n      jump\t// in\n    tag_48:\n    tag_47:\n      0x04\n      mul\n      add\n        /* \"basic/Divergence.sol\":4385:4414  playerList[winnerIndex].round */\n      0x03\n      add\n      sload\n        /* \"basic/Divergence.sol\":4238:4425  return (... */\n      dup4\n      dup1\n      sload\n      tag_50\n      swap1\n      tag_51\n      jump\t// in\n    tag_50:\n      dup1\n      0x1f\n      add\n      0x20\n      dup1\n      swap2\n      div\n      mul\n      0x20\n      add\n      mload(0x40)\n      swap1\n      dup2\n      add\n      0x40\n      mstore\n      dup1\n      swap3\n      swap2\n      swap1\n      dup2\n      dup2\n      mstore\n      0x20\n      add\n      dup3\n      dup1\n      sload\n      tag_52\n      swap1\n      tag_51\n      jump\t// in\n    tag_52:\n      dup1\n      iszero\n      tag_53\n      jumpi\n      dup1\n      0x1f\n      lt\n      tag_54\n      jumpi\n      0x0100\n      dup1\n      dup4\n      sload\n      div\n      mul\n      dup4\n      mstore\n      swap2\n      0x20\n      add\n      swap2\n      jump(tag_53)\n    tag_54:\n      dup3\n      add\n      swap2\n      swap1\n      0x00\n      mstore\n      keccak256(0x00, 0x20)\n      swap1\n    tag_55:\n      dup2\n      sload\n      dup2\n      mstore\n      swap1\n      0x01\n      add\n      swap1\n      0x20\n      add\n      dup1\n      dup4\n      gt\n      tag_55\n      jumpi\n      dup3\n      swap1\n      sub\n      0x1f\n      and\n      dup3\n      add\n      swap2\n    tag_53:\n      pop\n      pop\n      pop\n      pop\n      pop\n      swap4\n      pop\n      swap5\n      pop\n      swap5\n      pop\n      swap5\n      pop\n      swap5\n      pop\n      pop\n        /* \"basic/Divergence.sol\":3955:4433  function winner() override external view returns (string memory, uint8, uint8, uint256) {... */\n    tag_35:\n      swap1\n      swap2\n      swap3\n      swap4\n      jump\t// out\n        /* \"basic/Divergence.sol\":2052:2571  function register(string memory _name) override  external {... */\n    tag_20:\n        /* \"basic/Divergence.sol\":2141:2142  2 */\n      0x02\n        /* \"basic/Divergence.sol\":2129:2138  userCount */\n      0x00\n      dup1\n      sload\n      swap1\n      0x0100\n      exp\n      swap1\n      div\n      0xff\n      and\n        /* \"basic/Divergence.sol\":2129:2142  userCount <=2 */\n      0xff\n      and\n      gt\n      iszero\n        /* \"basic/Divergence.sol\":2121:2163  require(userCount <=2, \"two player only\" ) */\n      tag_57\n      jumpi\n      mload(0x40)\n      0x08c379a000000000000000000000000000000000000000000000000000000000\n      dup2\n      mstore\n      0x04\n      add\n      tag_58\n      swap1\n      tag_59\n      jump\t// in\n    tag_58:\n      mload(0x40)\n      dup1\n      swap2\n      sub\n      swap1\n      revert\n    tag_57:\n        /* \"basic/Divergence.sol\":2181:2187  uint i */\n      0x00\n        /* \"basic/Divergence.sol\":2176:2436  for (uint i = 0; i < playerList.length; i++) {... */\n    tag_60:\n        /* \"basic/Divergence.sol\":2197:2214  playerList.length */\n      0x02\n        /* \"basic/Divergence.sol\":2193:2194  i */\n      dup2\n        /* \"basic/Divergence.sol\":2193:2214  i < playerList.length */\n      lt\n        /* \"basic/Divergence.sol\":2176:2436  for (uint i = 0; i < playerList.length; i++) {... */\n      iszero\n      tag_61\n      jumpi\n        /* \"basic/Divergence.sol\":2344:2349  _name */\n      dup2\n        /* \"basic/Divergence.sol\":2327:2350  abi.encodePacked(_name) */\n      add(0x20, mload(0x40))\n      tag_63\n      swap2\n      swap1\n      tag_64\n      jump\t// in\n    tag_63:\n      mload(0x40)\n      0x20\n      dup2\n      dup4\n      sub\n      sub\n      dup2\n      mstore\n      swap1\n      0x40\n      mstore\n        /* \"basic/Divergence.sol\":2317:2351  keccak256(abi.encodePacked(_name)) */\n      dup1\n      mload\n      swap1\n      0x20\n      add\n      keccak256\n        /* \"basic/Divergence.sol\":2271:2281  playerList */\n      0x01\n        /* \"basic/Divergence.sol\":2282:2283  i */\n      dup3\n        /* \"basic/Divergence.sol\":2271:2284  playerList[i] */\n      0x02\n      dup2\n      lt\n      tag_65\n      jumpi\n      tag_66\n      tag_28\n      jump\t// in\n    tag_66:\n    tag_65:\n      0x04\n      mul\n      add\n        /* \"basic/Divergence.sol\":2271:2289  playerList[i].name */\n      0x01\n      add\n        /* \"basic/Divergence.sol\":2254:2290  abi.encodePacked(playerList[i].name) */\n      add(0x20, mload(0x40))\n      tag_68\n      swap2\n      swap1\n      tag_69\n      jump\t// in\n    tag_68:\n      mload(0x40)\n      0x20\n      dup2\n      dup4\n      sub\n      sub\n      dup2\n      mstore\n      swap1\n      0x40\n      mstore\n        /* \"basic/Divergence.sol\":2244:2291  keccak256(abi.encodePacked(playerList[i].name)) */\n      dup1\n      mload\n      swap1\n      0x20\n      add\n      keccak256\n        /* \"basic/Divergence.sol\":2244:2351  keccak256(abi.encodePacked(playerList[i].name)) != ... */\n      eq\n      iszero\n        /* \"basic/Divergence.sol\":2389:2394  _name */\n      dup3\n        /* \"basic/Divergence.sol\":2375:2423  string.concat(_name, \" player already register\") */\n      add(0x20, mload(0x40))\n      tag_70\n      swap2\n      swap1\n      tag_71\n      jump\t// in\n    tag_70:\n      mload(0x40)\n      0x20\n      dup2\n      dup4\n      sub\n      sub\n      dup2\n      mstore\n      swap1\n      0x40\n      mstore\n        /* \"basic/Divergence.sol\":2236:2424  require(keccak256(abi.encodePacked(playerList[i].name)) != ... */\n      swap1\n      tag_72\n      jumpi\n      mload(0x40)\n      0x08c379a000000000000000000000000000000000000000000000000000000000\n      dup2\n      mstore\n      0x04\n      add\n      tag_73\n      swap2\n      swap1\n      tag_74\n      jump\t// in\n    tag_73:\n      mload(0x40)\n      dup1\n      swap2\n      sub\n      swap1\n      revert\n    tag_72:\n      pop\n        /* \"basic/Divergence.sol\":2216:2219  i++ */\n      dup1\n      dup1\n      0x01\n      add\n      swap2\n      pop\n      pop\n        /* \"basic/Divergence.sol\":2176:2436  for (uint i = 0; i < playerList.length; i++) {... */\n      jump(tag_60)\n    tag_61:\n      pop\n        /* \"basic/Divergence.sol\":2485:2495  msg.sender */\n      caller\n        /* \"basic/Divergence.sol\":2456:2466  playerList */\n      0x01\n        /* \"basic/Divergence.sol\":2467:2476  userCount */\n      0x00\n      dup1\n      sload\n      swap1\n      0x0100\n      exp\n      swap1\n      div\n      0xff\n      and\n        /* \"basic/Divergence.sol\":2456:2477  playerList[userCount] */\n      0xff\n      and\n      0x02\n      dup2\n      lt\n      tag_75\n      jumpi\n      tag_76\n      tag_28\n      jump\t// in\n    tag_76:\n    tag_75:\n      0x04\n      mul\n      add\n        /* \"basic/Divergence.sol\":2456:2482  playerList[userCount].user */\n      0x00\n      add\n      0x00\n        /* \"basic/Divergence.sol\":2456:2495  playerList[userCount].user = msg.sender */\n      0x0100\n      exp\n      dup2\n      sload\n      dup2\n      0xffffffffffffffffffffffffffffffffffffffff\n      mul\n      not\n      and\n      swap1\n      dup4\n      0xffffffffffffffffffffffffffffffffffffffff\n      and\n      mul\n      or\n      swap1\n      sstore\n      pop\n        /* \"basic/Divergence.sol\":2535:2540  _name */\n      dup1\n        /* \"basic/Divergence.sol\":2506:2516  playerList */\n      0x01\n        /* \"basic/Divergence.sol\":2517:2526  userCount */\n      0x00\n      dup1\n      sload\n      swap1\n      0x0100\n      exp\n      swap1\n      div\n      0xff\n      and\n        /* \"basic/Divergence.sol\":2506:2527  playerList[userCount] */\n      0xff\n      and\n      0x02\n      dup2\n      lt\n      tag_78\n      jumpi\n      tag_79\n      tag_28\n      jump\t// in\n    tag_79:\n    tag_78:\n      0x04\n      mul\n      add\n        /* \"basic/Divergence.sol\":2506:2532  playerList[userCount].name */\n      0x01\n      add\n        /* \"basic/Divergence.sol\":2506:2540  playerList[userCount].name = _name */\n      swap1\n      dup2\n      tag_81\n      swap2\n      swap1\n      tag_82\n      jump\t// in\n    tag_81:\n      pop\n        /* \"basic/Divergence.sol\":2551:2560  userCount */\n      0x00\n      dup1\n        /* \"basic/Divergence.sol\":2551:2563  userCount ++ */\n      dup2\n      dup2\n      swap1\n      sload\n      swap1\n      0x0100\n      exp\n      swap1\n      div\n      0xff\n      and\n      dup1\n      swap3\n      swap2\n      swap1\n      tag_83\n      swap1\n      tag_84\n      jump\t// in\n    tag_83:\n      swap2\n      swap1\n      0x0100\n      exp\n      dup2\n      sload\n      dup2\n      0xff\n      mul\n      not\n      and\n      swap1\n      dup4\n      0xff\n      and\n      mul\n      or\n      swap1\n      sstore\n      pop\n      pop\n        /* \"basic/Divergence.sol\":2052:2571  function register(string memory _name) override  external {... */\n      pop\n      jump\t// out\n        /* \"basic/Divergence.sol\":2668:3852  function choose(uint8 _opt) override external {... */\n    tag_24:\n        /* \"basic/Divergence.sol\":2758:2778  isPlayer(msg.sender) */\n      tag_86\n        /* \"basic/Divergence.sol\":2767:2777  msg.sender */\n      caller\n        /* \"basic/Divergence.sol\":2758:2766  isPlayer */\n      tag_10\n        /* \"basic/Divergence.sol\":2758:2778  isPlayer(msg.sender) */\n      jump\t// in\n    tag_86:\n        /* \"basic/Divergence.sol\":2750:2810  require(isPlayer(msg.sender), \"only register player can do\") */\n      tag_87\n      jumpi\n      mload(0x40)\n      0x08c379a000000000000000000000000000000000000000000000000000000000\n      dup2\n      mstore\n      0x04\n      add\n      tag_88\n      swap1\n      tag_89\n      jump\t// in\n    tag_88:\n      mload(0x40)\n      dup1\n      swap2\n      sub\n      swap1\n      revert\n    tag_87:\n        /* \"basic/Divergence.sol\":2861:2871  isFinished */\n      0x09\n      0x00\n      swap1\n      sload\n      swap1\n      0x0100\n      exp\n      swap1\n      div\n      0xff\n      and\n        /* \"basic/Divergence.sol\":2860:2871  !isFinished */\n      iszero\n        /* \"basic/Divergence.sol\":2852:2889  require(!isFinished, \"game finished\") */\n      tag_90\n      jumpi\n      mload(0x40)\n      0x08c379a000000000000000000000000000000000000000000000000000000000\n      dup2\n      mstore\n      0x04\n      add\n      tag_91\n      swap1\n      tag_92\n      jump\t// in\n    tag_91:\n      mload(0x40)\n      dup1\n      swap2\n      sub\n      swap1\n      revert\n    tag_90:\n        /* \"basic/Divergence.sol\":2937:2949  uint8 index1 */\n      0x00\n        /* \"basic/Divergence.sol\":2970:2982  uint8 index2 */\n      dup1\n        /* \"basic/Divergence.sol\":3029:3039  msg.sender */\n      caller\n        /* \"basic/Divergence.sol\":3007:3039  playerList[0].user == msg.sender */\n      0xffffffffffffffffffffffffffffffffffffffff\n      and\n        /* \"basic/Divergence.sol\":3007:3017  playerList */\n      0x01\n        /* \"basic/Divergence.sol\":3018:3019  0 */\n      0x00\n        /* \"basic/Divergence.sol\":3007:3020  playerList[0] */\n      0x02\n      dup2\n      lt\n      tag_93\n      jumpi\n      tag_94\n      tag_28\n      jump\t// in\n    tag_94:\n    tag_93:\n      0x04\n      mul\n      add\n        /* \"basic/Divergence.sol\":3007:3025  playerList[0].user */\n      0x00\n      add\n      0x00\n      swap1\n      sload\n      swap1\n      0x0100\n      exp\n      swap1\n      div\n      0xffffffffffffffffffffffffffffffffffffffff\n      and\n        /* \"basic/Divergence.sol\":3007:3039  playerList[0].user == msg.sender */\n      0xffffffffffffffffffffffffffffffffffffffff\n      and\n      sub\n        /* \"basic/Divergence.sol\":3003:3171  if (playerList[0].user == msg.sender) {... */\n      tag_96\n      jumpi\n        /* \"basic/Divergence.sol\":3065:3066  0 */\n      0x00\n        /* \"basic/Divergence.sol\":3056:3066  index1 = 0 */\n      swap2\n      pop\n        /* \"basic/Divergence.sol\":3090:3091  1 */\n      0x01\n        /* \"basic/Divergence.sol\":3081:3091  index2 = 1 */\n      swap1\n      pop\n        /* \"basic/Divergence.sol\":3003:3171  if (playerList[0].user == msg.sender) {... */\n      jump(tag_97)\n    tag_96:\n        /* \"basic/Divergence.sol\":3133:3134  1 */\n      0x01\n        /* \"basic/Divergence.sol\":3124:3134  index1 = 1 */\n      swap2\n      pop\n        /* \"basic/Divergence.sol\":3158:3159  0 */\n      0x00\n        /* \"basic/Divergence.sol\":3149:3159  index2 = 0 */\n      swap1\n      pop\n        /* \"basic/Divergence.sol\":3003:3171  if (playerList[0].user == msg.sender) {... */\n    tag_97:\n        /* \"basic/Divergence.sol\":3181:3202  Player storage player */\n      0x00\n        /* \"basic/Divergence.sol\":3205:3215  playerList */\n      0x01\n        /* \"basic/Divergence.sol\":3216:3222  index1 */\n      dup4\n        /* \"basic/Divergence.sol\":3205:3223  playerList[index1] */\n      0xff\n      and\n      0x02\n      dup2\n      lt\n      tag_98\n      jumpi\n      tag_99\n      tag_28\n      jump\t// in\n    tag_99:\n    tag_98:\n      0x04\n      mul\n      add\n        /* \"basic/Divergence.sol\":3181:3223  Player storage player = playerList[index1] */\n      swap1\n      pop\n        /* \"basic/Divergence.sol\":3295:3305  playerList */\n      0x01\n        /* \"basic/Divergence.sol\":3306:3312  index2 */\n      dup3\n        /* \"basic/Divergence.sol\":3295:3313  playerList[index2] */\n      0xff\n      and\n      0x02\n      dup2\n      lt\n      tag_101\n      jumpi\n      tag_102\n      tag_28\n      jump\t// in\n    tag_102:\n    tag_101:\n      0x04\n      mul\n      add\n        /* \"basic/Divergence.sol\":3295:3319  playerList[index2].round */\n      0x03\n      add\n      sload\n        /* \"basic/Divergence.sol\":3279:3285  player */\n      dup2\n        /* \"basic/Divergence.sol\":3279:3291  player.round */\n      0x03\n      add\n      sload\n        /* \"basic/Divergence.sol\":3279:3319  player.round <= playerList[index2].round */\n      gt\n      iszero\n        /* \"basic/Divergence.sol\":3271:3335  require(player.round <= playerList[index2].round, \"please wait\") */\n      tag_104\n      jumpi\n      mload(0x40)\n      0x08c379a000000000000000000000000000000000000000000000000000000000\n      dup2\n      mstore\n      0x04\n      add\n      tag_105\n      swap1\n      tag_106\n      jump\t// in\n    tag_105:\n      mload(0x40)\n      dup1\n      swap2\n      sub\n      swap1\n      revert\n    tag_104:\n        /* \"basic/Divergence.sol\":3359:3363  _opt */\n      dup4\n        /* \"basic/Divergence.sol\":3346:3352  player */\n      dup2\n        /* \"basic/Divergence.sol\":3346:3356  player.opt */\n      0x02\n      add\n      0x00\n        /* \"basic/Divergence.sol\":3346:3363  player.opt = _opt */\n      0x0100\n      exp\n      dup2\n      sload\n      dup2\n      0xff\n      mul\n      not\n      and\n      swap1\n      dup4\n      0xff\n      and\n      mul\n      or\n      swap1\n      sstore\n      pop\n        /* \"basic/Divergence.sol\":3374:3380  player */\n      dup1\n        /* \"basic/Divergence.sol\":3374:3386  player.round */\n      0x03\n      add\n      0x00\n        /* \"basic/Divergence.sol\":3374:3389  player.round ++ */\n      dup2\n      sload\n      dup1\n      swap3\n      swap2\n      swap1\n      tag_107\n      swap1\n      tag_108\n      jump\t// in\n    tag_107:\n      swap2\n      swap1\n      pop\n      sstore\n      pop\n        /* \"basic/Divergence.sol\":3451:3461  playerList */\n      0x01\n        /* \"basic/Divergence.sol\":3462:3468  index2 */\n      dup3\n        /* \"basic/Divergence.sol\":3451:3469  playerList[index2] */\n      0xff\n      and\n      0x02\n      dup2\n      lt\n      tag_109\n      jumpi\n      tag_110\n      tag_28\n      jump\t// in\n    tag_110:\n    tag_109:\n      0x04\n      mul\n      add\n        /* \"basic/Divergence.sol\":3451:3475  playerList[index2].round */\n      0x03\n      add\n      sload\n        /* \"basic/Divergence.sol\":3435:3441  player */\n      dup2\n        /* \"basic/Divergence.sol\":3435:3447  player.round */\n      0x03\n      add\n      sload\n        /* \"basic/Divergence.sol\":3435:3475  player.round == playerList[index2].round */\n      sub\n        /* \"basic/Divergence.sol\":3431:3845  if (player.round == playerList[index2].round) {... */\n      tag_112\n      jumpi\n        /* \"basic/Divergence.sol\":3492:3501  uint8 win */\n      0x00\n        /* \"basic/Divergence.sol\":3504:3551  Math.winner(player.opt, playerList[index2].opt) */\n      tag_113\n        /* \"basic/Divergence.sol\":3516:3522  player */\n      dup3\n        /* \"basic/Divergence.sol\":3516:3526  player.opt */\n      0x02\n      add\n      0x00\n      swap1\n      sload\n      swap1\n      0x0100\n      exp\n      swap1\n      div\n      0xff\n      and\n        /* \"basic/Divergence.sol\":3528:3538  playerList */\n      0x01\n        /* \"basic/Divergence.sol\":3539:3545  index2 */\n      dup6\n        /* \"basic/Divergence.sol\":3528:3546  playerList[index2] */\n      0xff\n      and\n      0x02\n      dup2\n      lt\n      tag_114\n      jumpi\n      tag_115\n      tag_28\n      jump\t// in\n    tag_115:\n    tag_114:\n      0x04\n      mul\n      add\n        /* \"basic/Divergence.sol\":3528:3550  playerList[index2].opt */\n      0x02\n      add\n      0x00\n      swap1\n      sload\n      swap1\n      0x0100\n      exp\n      swap1\n      div\n      0xff\n      and\n        /* \"basic/Divergence.sol\":3504:3515  Math.winner */\n      tag_117\n        /* \"basic/Divergence.sol\":3504:3551  Math.winner(player.opt, playerList[index2].opt) */\n      jump\t// in\n    tag_113:\n        /* \"basic/Divergence.sol\":3492:3551  uint8 win = Math.winner(player.opt, playerList[index2].opt) */\n      swap1\n      pop\n        /* \"basic/Divergence.sol\":3577:3578  1 */\n      0x01\n        /* \"basic/Divergence.sol\":3570:3573  win */\n      dup2\n        /* \"basic/Divergence.sol\":3570:3578  win == 1 */\n      0xff\n      and\n      sub\n        /* \"basic/Divergence.sol\":3566:3782  if (win == 1) {... */\n      tag_118\n      jumpi\n        /* \"basic/Divergence.sol\":3612:3616  true */\n      0x01\n        /* \"basic/Divergence.sol\":3599:3609  isFinished */\n      0x09\n      0x00\n        /* \"basic/Divergence.sol\":3599:3616  isFinished = true */\n      0x0100\n      exp\n      dup2\n      sload\n      dup2\n      0xff\n      mul\n      not\n      and\n      swap1\n      dup4\n      iszero\n      iszero\n      mul\n      or\n      swap1\n      sstore\n      pop\n        /* \"basic/Divergence.sol\":3649:3655  index1 */\n      dup4\n        /* \"basic/Divergence.sol\":3635:3646  winnerIndex */\n      0x09\n      0x01\n        /* \"basic/Divergence.sol\":3635:3655  winnerIndex = index1 */\n      0x0100\n      exp\n      dup2\n      sload\n      dup2\n      0xff\n      mul\n      not\n      and\n      swap1\n      dup4\n      0xff\n      and\n      mul\n      or\n      swap1\n      sstore\n      pop\n        /* \"basic/Divergence.sol\":3566:3782  if (win == 1) {... */\n      jump(tag_119)\n    tag_118:\n        /* \"basic/Divergence.sol\":3688:3689  2 */\n      0x02\n        /* \"basic/Divergence.sol\":3681:3684  win */\n      dup2\n        /* \"basic/Divergence.sol\":3681:3689  win == 2 */\n      0xff\n      and\n      sub\n        /* \"basic/Divergence.sol\":3677:3782  if (win == 2) {... */\n      tag_120\n      jumpi\n        /* \"basic/Divergence.sol\":3723:3727  true */\n      0x01\n        /* \"basic/Divergence.sol\":3710:3720  isFinished */\n      0x09\n      0x00\n        /* \"basic/Divergence.sol\":3710:3727  isFinished = true */\n      0x0100\n      exp\n      dup2\n      sload\n      dup2\n      0xff\n      mul\n      not\n      and\n      swap1\n      dup4\n      iszero\n      iszero\n      mul\n      or\n      swap1\n      sstore\n      pop\n        /* \"basic/Divergence.sol\":3760:3766  index2 */\n      dup3\n        /* \"basic/Divergence.sol\":3746:3757  winnerIndex */\n      0x09\n      0x01\n        /* \"basic/Divergence.sol\":3746:3766  winnerIndex = index2 */\n      0x0100\n      exp\n      dup2\n      sload\n      dup2\n      0xff\n      mul\n      not\n      and\n      swap1\n      dup4\n      0xff\n      and\n      mul\n      or\n      swap1\n      sstore\n      pop\n        /* \"basic/Divergence.sol\":3677:3782  if (win == 2) {... */\n    tag_120:\n        /* \"basic/Divergence.sol\":3566:3782  if (win == 1) {... */\n    tag_119:\n        /* \"basic/Divergence.sol\":3811:3821  msg.sender */\n      caller\n        /* \"basic/Divergence.sol\":3801:3833  WinnerLog(msg.sender, _opt, win) */\n      0xffffffffffffffffffffffffffffffffffffffff\n      and\n      0xbc8908f0f5274bbd93bd1009cbda13f56be8085c477035173cbf3550b96596a6\n        /* \"basic/Divergence.sol\":3823:3827  _opt */\n      dup7\n        /* \"basic/Divergence.sol\":3829:3832  win */\n      dup4\n        /* \"basic/Divergence.sol\":3801:3833  WinnerLog(msg.sender, _opt, win) */\n      mload(0x40)\n      tag_121\n      swap3\n      swap2\n      swap1\n      tag_122\n      jump\t// in\n    tag_121:\n      mload(0x40)\n      dup1\n      swap2\n      sub\n      swap1\n      log2\n        /* \"basic/Divergence.sol\":3477:3845  {... */\n      pop\n        /* \"basic/Divergence.sol\":3431:3845  if (player.round == playerList[index2].round) {... */\n    tag_112:\n        /* \"basic/Divergence.sol\":2714:3852  {... */\n      pop\n      pop\n      pop\n        /* \"basic/Divergence.sol\":2668:3852  function choose(uint8 _opt) override external {... */\n      pop\n      jump\t// out\n        /* \"basic/Divergence.sol\":903:1496  function winner(uint8 a, uint8 b) internal  pure returns (uint8) {... */\n    tag_117:\n        /* \"basic/Divergence.sol\":961:966  uint8 */\n      0x00\n        /* \"basic/Divergence.sol\":992:993  2 */\n      0x02\n        /* \"basic/Divergence.sol\":987:988  a */\n      dup4\n        /* \"basic/Divergence.sol\":987:993  a <= 2 */\n      0xff\n      and\n      gt\n      iszero\n        /* \"basic/Divergence.sol\":979:994  require(a <= 2) */\n      tag_124\n      jumpi\n      0x00\n      dup1\n      revert\n    tag_124:\n        /* \"basic/Divergence.sol\":1018:1019  2 */\n      0x02\n        /* \"basic/Divergence.sol\":1013:1014  b */\n      dup3\n        /* \"basic/Divergence.sol\":1013:1019  b <= 2 */\n      0xff\n      and\n      gt\n      iszero\n        /* \"basic/Divergence.sol\":1005:1020  require(b <= 2) */\n      tag_125\n      jumpi\n      0x00\n      dup1\n      revert\n    tag_125:\n        /* \"basic/Divergence.sol\":1040:1041  b */\n      dup2\n        /* \"basic/Divergence.sol\":1035:1041  a == b */\n      0xff\n      and\n        /* \"basic/Divergence.sol\":1035:1036  a */\n      dup4\n        /* \"basic/Divergence.sol\":1035:1041  a == b */\n      0xff\n      and\n      sub\n        /* \"basic/Divergence.sol\":1031:1469  if( a == b) {... */\n      tag_126\n      jumpi\n        /* \"basic/Divergence.sol\":1065:1066  0 */\n      0x00\n        /* \"basic/Divergence.sol\":1058:1066  return 0 */\n      swap1\n      pop\n      jump(tag_123)\n        /* \"basic/Divergence.sol\":1031:1469  if( a == b) {... */\n    tag_126:\n        /* \"basic/Divergence.sol\":1092:1093  b */\n      dup2\n        /* \"basic/Divergence.sol\":1088:1093  a > b */\n      0xff\n      and\n        /* \"basic/Divergence.sol\":1088:1089  a */\n      dup4\n        /* \"basic/Divergence.sol\":1088:1093  a > b */\n      0xff\n      and\n      gt\n        /* \"basic/Divergence.sol\":1084:1469  if (a > b) {... */\n      iszero\n      tag_128\n      jumpi\n        /* \"basic/Divergence.sol\":1235:1236  b */\n      dup2\n        /* \"basic/Divergence.sol\":1231:1232  a */\n      dup4\n        /* \"basic/Divergence.sol\":1231:1236  a - b */\n      tag_129\n      swap2\n      swap1\n      tag_130\n      jump\t// in\n    tag_129:\n        /* \"basic/Divergence.sol\":1224:1236  return a - b */\n      swap1\n      pop\n      jump(tag_123)\n        /* \"basic/Divergence.sol\":1084:1469  if (a > b) {... */\n    tag_128:\n        /* \"basic/Divergence.sol\":1354:1355  2 */\n      0x02\n        /* \"basic/Divergence.sol\":1349:1350  a */\n      dup4\n        /* \"basic/Divergence.sol\":1345:1346  b */\n      dup4\n        /* \"basic/Divergence.sol\":1345:1350  b - a */\n      tag_132\n      swap2\n      swap1\n      tag_130\n      jump\t// in\n    tag_132:\n        /* \"basic/Divergence.sol\":1345:1355  b - a == 2 */\n      0xff\n      and\n      sub\n        /* \"basic/Divergence.sol\":1341:1365  if (b - a == 2) return 1 */\n      tag_133\n      jumpi\n        /* \"basic/Divergence.sol\":1364:1365  1 */\n      0x01\n        /* \"basic/Divergence.sol\":1357:1365  return 1 */\n      swap1\n      pop\n      jump(tag_123)\n        /* \"basic/Divergence.sol\":1341:1365  if (b - a == 2) return 1 */\n    tag_133:\n        /* \"basic/Divergence.sol\":1436:1437  1 */\n      0x01\n        /* \"basic/Divergence.sol\":1431:1432  a */\n      dup4\n        /* \"basic/Divergence.sol\":1427:1428  b */\n      dup4\n        /* \"basic/Divergence.sol\":1427:1432  b - a */\n      tag_134\n      swap2\n      swap1\n      tag_130\n      jump\t// in\n    tag_134:\n        /* \"basic/Divergence.sol\":1427:1437  b - a == 1 */\n      0xff\n      and\n      sub\n        /* \"basic/Divergence.sol\":1423:1447  if (b - a == 1) return 2 */\n      tag_135\n      jumpi\n        /* \"basic/Divergence.sol\":1446:1447  2 */\n      0x02\n        /* \"basic/Divergence.sol\":1439:1447  return 2 */\n      swap1\n      pop\n      jump(tag_123)\n        /* \"basic/Divergence.sol\":1423:1447  if (b - a == 1) return 2 */\n    tag_135:\n        /* \"basic/Divergence.sol\":1487:1488  0 */\n      0x00\n        /* \"basic/Divergence.sol\":1480:1488  return 0 */\n      swap1\n      pop\n        /* \"basic/Divergence.sol\":903:1496  function winner(uint8 a, uint8 b) internal  pure returns (uint8) {... */\n    tag_123:\n      swap3\n      swap2\n      pop\n      pop\n      jump\t// out\n        /* \"#utility.yul\":7:82   */\n    tag_136:\n        /* \"#utility.yul\":40:46   */\n      0x00\n        /* \"#utility.yul\":73:75   */\n      0x40\n        /* \"#utility.yul\":67:76   */\n      mload\n        /* \"#utility.yul\":57:76   */\n      swap1\n      pop\n        /* \"#utility.yul\":7:82   */\n      swap1\n      jump\t// out\n        /* \"#utility.yul\":88:205   */\n    tag_137:\n        /* \"#utility.yul\":197:198   */\n      0x00\n        /* \"#utility.yul\":194:195   */\n      dup1\n        /* \"#utility.yul\":187:199   */\n      revert\n        /* \"#utility.yul\":211:328   */\n    tag_138:\n        /* \"#utility.yul\":320:321   */\n      0x00\n        /* \"#utility.yul\":317:318   */\n      dup1\n        /* \"#utility.yul\":310:322   */\n      revert\n        /* \"#utility.yul\":334:460   */\n    tag_139:\n        /* \"#utility.yul\":371:378   */\n      0x00\n        /* \"#utility.yul\":411:453   */\n      0xffffffffffffffffffffffffffffffffffffffff\n        /* \"#utility.yul\":404:409   */\n      dup3\n        /* \"#utility.yul\":400:454   */\n      and\n        /* \"#utility.yul\":389:454   */\n      swap1\n      pop\n        /* \"#utility.yul\":334:460   */\n      swap2\n      swap1\n      pop\n      jump\t// out\n        /* \"#utility.yul\":466:562   */\n    tag_140:\n        /* \"#utility.yul\":503:510   */\n      0x00\n        /* \"#utility.yul\":532:556   */\n      tag_200\n        /* \"#utility.yul\":550:555   */\n      dup3\n        /* \"#utility.yul\":532:556   */\n      tag_139\n      jump\t// in\n    tag_200:\n        /* \"#utility.yul\":521:556   */\n      swap1\n      pop\n        /* \"#utility.yul\":466:562   */\n      swap2\n      swap1\n      pop\n      jump\t// out\n        /* \"#utility.yul\":568:690   */\n    tag_141:\n        /* \"#utility.yul\":641:665   */\n      tag_202\n        /* \"#utility.yul\":659:664   */\n      dup2\n        /* \"#utility.yul\":641:665   */\n      tag_140\n      jump\t// in\n    tag_202:\n        /* \"#utility.yul\":634:639   */\n      dup2\n        /* \"#utility.yul\":631:666   */\n      eq\n        /* \"#utility.yul\":621:684   */\n      tag_203\n      jumpi\n        /* \"#utility.yul\":680:681   */\n      0x00\n        /* \"#utility.yul\":677:678   */\n      dup1\n        /* \"#utility.yul\":670:682   */\n      revert\n        /* \"#utility.yul\":621:684   */\n    tag_203:\n        /* \"#utility.yul\":568:690   */\n      pop\n      jump\t// out\n        /* \"#utility.yul\":696:835   */\n    tag_142:\n        /* \"#utility.yul\":742:747   */\n      0x00\n        /* \"#utility.yul\":780:786   */\n      dup2\n        /* \"#utility.yul\":767:787   */\n      calldataload\n        /* \"#utility.yul\":758:787   */\n      swap1\n      pop\n        /* \"#utility.yul\":796:829   */\n      tag_205\n        /* \"#utility.yul\":823:828   */\n      dup2\n        /* \"#utility.yul\":796:829   */\n      tag_141\n      jump\t// in\n    tag_205:\n        /* \"#utility.yul\":696:835   */\n      swap3\n      swap2\n      pop\n      pop\n      jump\t// out\n        /* \"#utility.yul\":841:1170   */\n    tag_9:\n        /* \"#utility.yul\":900:906   */\n      0x00\n        /* \"#utility.yul\":949:951   */\n      0x20\n        /* \"#utility.yul\":937:946   */\n      dup3\n        /* \"#utility.yul\":928:935   */\n      dup5\n        /* \"#utility.yul\":924:947   */\n      sub\n        /* \"#utility.yul\":920:952   */\n      slt\n        /* \"#utility.yul\":917:1036   */\n      iszero\n      tag_207\n      jumpi\n        /* \"#utility.yul\":955:1034   */\n      tag_208\n      tag_137\n      jump\t// in\n    tag_208:\n        /* \"#utility.yul\":917:1036   */\n    tag_207:\n        /* \"#utility.yul\":1075:1076   */\n      0x00\n        /* \"#utility.yul\":1100:1153   */\n      tag_209\n        /* \"#utility.yul\":1145:1152   */\n      dup5\n        /* \"#utility.yul\":1136:1142   */\n      dup3\n        /* \"#utility.yul\":1125:1134   */\n      dup6\n        /* \"#utility.yul\":1121:1143   */\n      add\n        /* \"#utility.yul\":1100:1153   */\n      tag_142\n      jump\t// in\n    tag_209:\n        /* \"#utility.yul\":1090:1153   */\n      swap2\n      pop\n        /* \"#utility.yul\":1046:1163   */\n      pop\n        /* \"#utility.yul\":841:1170   */\n      swap3\n      swap2\n      pop\n      pop\n      jump\t// out\n        /* \"#utility.yul\":1176:1266   */\n    tag_143:\n        /* \"#utility.yul\":1210:1217   */\n      0x00\n        /* \"#utility.yul\":1253:1258   */\n      dup2\n        /* \"#utility.yul\":1246:1259   */\n      iszero\n        /* \"#utility.yul\":1239:1260   */\n      iszero\n        /* \"#utility.yul\":1228:1260   */\n      swap1\n      pop\n        /* \"#utility.yul\":1176:1266   */\n      swap2\n      swap1\n      pop\n      jump\t// out\n        /* \"#utility.yul\":1272:1381   */\n    tag_144:\n        /* \"#utility.yul\":1353:1374   */\n      tag_212\n        /* \"#utility.yul\":1368:1373   */\n      dup2\n        /* \"#utility.yul\":1353:1374   */\n      tag_143\n      jump\t// in\n    tag_212:\n        /* \"#utility.yul\":1348:1351   */\n      dup3\n        /* \"#utility.yul\":1341:1375   */\n      mstore\n        /* \"#utility.yul\":1272:1381   */\n      pop\n      pop\n      jump\t// out\n        /* \"#utility.yul\":1387:1597   */\n    tag_12:\n        /* \"#utility.yul\":1474:1478   */\n      0x00\n        /* \"#utility.yul\":1512:1514   */\n      0x20\n        /* \"#utility.yul\":1501:1510   */\n      dup3\n        /* \"#utility.yul\":1497:1515   */\n      add\n        /* \"#utility.yul\":1489:1515   */\n      swap1\n      pop\n        /* \"#utility.yul\":1525:1590   */\n      tag_214\n        /* \"#utility.yul\":1587:1588   */\n      0x00\n        /* \"#utility.yul\":1576:1585   */\n      dup4\n        /* \"#utility.yul\":1572:1589   */\n      add\n        /* \"#utility.yul\":1563:1569   */\n      dup5\n        /* \"#utility.yul\":1525:1590   */\n      tag_144\n      jump\t// in\n    tag_214:\n        /* \"#utility.yul\":1387:1597   */\n      swap3\n      swap2\n      pop\n      pop\n      jump\t// out\n        /* \"#utility.yul\":1603:1702   */\n    tag_145:\n        /* \"#utility.yul\":1655:1661   */\n      0x00\n        /* \"#utility.yul\":1689:1694   */\n      dup2\n        /* \"#utility.yul\":1683:1695   */\n      mload\n        /* \"#utility.yul\":1673:1695   */\n      swap1\n      pop\n        /* \"#utility.yul\":1603:1702   */\n      swap2\n      swap1\n      pop\n      jump\t// out\n        /* \"#utility.yul\":1708:1877   */\n    tag_146:\n        /* \"#utility.yul\":1792:1803   */\n      0x00\n        /* \"#utility.yul\":1826:1832   */\n      dup3\n        /* \"#utility.yul\":1821:1824   */\n      dup3\n        /* \"#utility.yul\":1814:1833   */\n      mstore\n        /* \"#utility.yul\":1866:1870   */\n      0x20\n        /* \"#utility.yul\":1861:1864   */\n      dup3\n        /* \"#utility.yul\":1857:1871   */\n      add\n        /* \"#utility.yul\":1842:1871   */\n      swap1\n      pop\n        /* \"#utility.yul\":1708:1877   */\n      swap3\n      swap2\n      pop\n      pop\n      jump\t// out\n        /* \"#utility.yul\":1883:2022   */\n    tag_147:\n        /* \"#utility.yul\":1972:1978   */\n      dup3\n        /* \"#utility.yul\":1967:1970   */\n      dup2\n        /* \"#utility.yul\":1962:1965   */\n      dup4\n        /* \"#utility.yul\":1956:1979   */\n      mcopy\n        /* \"#utility.yul\":2013:2014   */\n      0x00\n        /* \"#utility.yul\":2004:2010   */\n      dup4\n        /* \"#utility.yul\":1999:2002   */\n      dup4\n        /* \"#utility.yul\":1995:2011   */\n      add\n        /* \"#utility.yul\":1988:2015   */\n      mstore\n        /* \"#utility.yul\":1883:2022   */\n      pop\n      pop\n      pop\n      jump\t// out\n        /* \"#utility.yul\":2028:2130   */\n    tag_148:\n        /* \"#utility.yul\":2069:2075   */\n      0x00\n        /* \"#utility.yul\":2120:2122   */\n      0x1f\n        /* \"#utility.yul\":2116:2123   */\n      not\n        /* \"#utility.yul\":2111:2113   */\n      0x1f\n        /* \"#utility.yul\":2104:2109   */\n      dup4\n        /* \"#utility.yul\":2100:2114   */\n      add\n        /* \"#utility.yul\":2096:2124   */\n      and\n        /* \"#utility.yul\":2086:2124   */\n      swap1\n      pop\n        /* \"#utility.yul\":2028:2130   */\n      swap2\n      swap1\n      pop\n      jump\t// out\n        /* \"#utility.yul\":2136:2513   */\n    tag_149:\n        /* \"#utility.yul\":2224:2227   */\n      0x00\n        /* \"#utility.yul\":2252:2291   */\n      tag_220\n        /* \"#utility.yul\":2285:2290   */\n      dup3\n        /* \"#utility.yul\":2252:2291   */\n      tag_145\n      jump\t// in\n    tag_220:\n        /* \"#utility.yul\":2307:2378   */\n      tag_221\n        /* \"#utility.yul\":2371:2377   */\n      dup2\n        /* \"#utility.yul\":2366:2369   */\n      dup6\n        /* \"#utility.yul\":2307:2378   */\n      tag_146\n      jump\t// in\n    tag_221:\n        /* \"#utility.yul\":2300:2378   */\n      swap4\n      pop\n        /* \"#utility.yul\":2387:2452   */\n      tag_222\n        /* \"#utility.yul\":2445:2451   */\n      dup2\n        /* \"#utility.yul\":2440:2443   */\n      dup6\n        /* \"#utility.yul\":2433:2437   */\n      0x20\n        /* \"#utility.yul\":2426:2431   */\n      dup7\n        /* \"#utility.yul\":2422:2438   */\n      add\n        /* \"#utility.yul\":2387:2452   */\n      tag_147\n      jump\t// in\n    tag_222:\n        /* \"#utility.yul\":2477:2506   */\n      tag_223\n        /* \"#utility.yul\":2499:2505   */\n      dup2\n        /* \"#utility.yul\":2477:2506   */\n      tag_148\n      jump\t// in\n    tag_223:\n        /* \"#utility.yul\":2472:2475   */\n      dup5\n        /* \"#utility.yul\":2468:2507   */\n      add\n        /* \"#utility.yul\":2461:2507   */\n      swap2\n      pop\n        /* \"#utility.yul\":2228:2513   */\n      pop\n        /* \"#utility.yul\":2136:2513   */\n      swap3\n      swap2\n      pop\n      pop\n      jump\t// out\n        /* \"#utility.yul\":2519:2605   */\n    tag_150:\n        /* \"#utility.yul\":2554:2561   */\n      0x00\n        /* \"#utility.yul\":2594:2598   */\n      0xff\n        /* \"#utility.yul\":2587:2592   */\n      dup3\n        /* \"#utility.yul\":2583:2599   */\n      and\n        /* \"#utility.yul\":2572:2599   */\n      swap1\n      pop\n        /* \"#utility.yul\":2519:2605   */\n      swap2\n      swap1\n      pop\n      jump\t// out\n        /* \"#utility.yul\":2611:2723   */\n    tag_151:\n        /* \"#utility.yul\":2694:2716   */\n      tag_226\n        /* \"#utility.yul\":2710:2715   */\n      dup2\n        /* \"#utility.yul\":2694:2716   */\n      tag_150\n      jump\t// in\n    tag_226:\n        /* \"#utility.yul\":2689:2692   */\n      dup3\n        /* \"#utility.yul\":2682:2717   */\n      mstore\n        /* \"#utility.yul\":2611:2723   */\n      pop\n      pop\n      jump\t// out\n        /* \"#utility.yul\":2729:2806   */\n    tag_152:\n        /* \"#utility.yul\":2766:2773   */\n      0x00\n        /* \"#utility.yul\":2795:2800   */\n      dup2\n        /* \"#utility.yul\":2784:2800   */\n      swap1\n      pop\n        /* \"#utility.yul\":2729:2806   */\n      swap2\n      swap1\n      pop\n      jump\t// out\n        /* \"#utility.yul\":2812:2930   */\n    tag_153:\n        /* \"#utility.yul\":2899:2923   */\n      tag_229\n        /* \"#utility.yul\":2917:2922   */\n      dup2\n        /* \"#utility.yul\":2899:2923   */\n      tag_152\n      jump\t// in\n    tag_229:\n        /* \"#utility.yul\":2894:2897   */\n      dup3\n        /* \"#utility.yul\":2887:2924   */\n      mstore\n        /* \"#utility.yul\":2812:2930   */\n      pop\n      pop\n      jump\t// out\n        /* \"#utility.yul\":2936:3564   */\n    tag_16:\n        /* \"#utility.yul\":3125:3129   */\n      0x00\n        /* \"#utility.yul\":3163:3166   */\n      0x80\n        /* \"#utility.yul\":3152:3161   */\n      dup3\n        /* \"#utility.yul\":3148:3167   */\n      add\n        /* \"#utility.yul\":3140:3167   */\n      swap1\n      pop\n        /* \"#utility.yul\":3213:3222   */\n      dup2\n        /* \"#utility.yul\":3207:3211   */\n      dup2\n        /* \"#utility.yul\":3203:3223   */\n      sub\n        /* \"#utility.yul\":3199:3200   */\n      0x00\n        /* \"#utility.yul\":3188:3197   */\n      dup4\n        /* \"#utility.yul\":3184:3201   */\n      add\n        /* \"#utility.yul\":3177:3224   */\n      mstore\n        /* \"#utility.yul\":3241:3319   */\n      tag_231\n        /* \"#utility.yul\":3314:3318   */\n      dup2\n        /* \"#utility.yul\":3305:3311   */\n      dup8\n        /* \"#utility.yul\":3241:3319   */\n      tag_149\n      jump\t// in\n    tag_231:\n        /* \"#utility.yul\":3233:3319   */\n      swap1\n      pop\n        /* \"#utility.yul\":3329:3397   */\n      tag_232\n        /* \"#utility.yul\":3393:3395   */\n      0x20\n        /* \"#utility.yul\":3382:3391   */\n      dup4\n        /* \"#utility.yul\":3378:3396   */\n      add\n        /* \"#utility.yul\":3369:3375   */\n      dup7\n        /* \"#utility.yul\":3329:3397   */\n      tag_151\n      jump\t// in\n    tag_232:\n        /* \"#utility.yul\":3407:3475   */\n      tag_233\n        /* \"#utility.yul\":3471:3473   */\n      0x40\n        /* \"#utility.yul\":3460:3469   */\n      dup4\n        /* \"#utility.yul\":3456:3474   */\n      add\n        /* \"#utility.yul\":3447:3453   */\n      dup6\n        /* \"#utility.yul\":3407:3475   */\n      tag_151\n      jump\t// in\n    tag_233:\n        /* \"#utility.yul\":3485:3557   */\n      tag_234\n        /* \"#utility.yul\":3553:3555   */\n      0x60\n        /* \"#utility.yul\":3542:3551   */\n      dup4\n        /* \"#utility.yul\":3538:3556   */\n      add\n        /* \"#utility.yul\":3529:3535   */\n      dup5\n        /* \"#utility.yul\":3485:3557   */\n      tag_153\n      jump\t// in\n    tag_234:\n        /* \"#utility.yul\":2936:3564   */\n      swap6\n      swap5\n      pop\n      pop\n      pop\n      pop\n      pop\n      jump\t// out\n        /* \"#utility.yul\":3570:3687   */\n    tag_154:\n        /* \"#utility.yul\":3679:3680   */\n      0x00\n        /* \"#utility.yul\":3676:3677   */\n      dup1\n        /* \"#utility.yul\":3669:3681   */\n      revert\n        /* \"#utility.yul\":3693:3810   */\n    tag_155:\n        /* \"#utility.yul\":3802:3803   */\n      0x00\n        /* \"#utility.yul\":3799:3800   */\n      dup1\n        /* \"#utility.yul\":3792:3804   */\n      revert\n        /* \"#utility.yul\":3816:3996   */\n    tag_156:\n        /* \"#utility.yul\":3864:3941   */\n      0x4e487b7100000000000000000000000000000000000000000000000000000000\n        /* \"#utility.yul\":3861:3862   */\n      0x00\n        /* \"#utility.yul\":3854:3942   */\n      mstore\n        /* \"#utility.yul\":3961:3965   */\n      0x41\n        /* \"#utility.yul\":3958:3959   */\n      0x04\n        /* \"#utility.yul\":3951:3966   */\n      mstore\n        /* \"#utility.yul\":3985:3989   */\n      0x24\n        /* \"#utility.yul\":3982:3983   */\n      0x00\n        /* \"#utility.yul\":3975:3990   */\n      revert\n        /* \"#utility.yul\":4002:4283   */\n    tag_157:\n        /* \"#utility.yul\":4085:4112   */\n      tag_239\n        /* \"#utility.yul\":4107:4111   */\n      dup3\n        /* \"#utility.yul\":4085:4112   */\n      tag_148\n      jump\t// in\n    tag_239:\n        /* \"#utility.yul\":4077:4083   */\n      dup2\n        /* \"#utility.yul\":4073:4113   */\n      add\n        /* \"#utility.yul\":4215:4221   */\n      dup2\n        /* \"#utility.yul\":4203:4213   */\n      dup2\n        /* \"#utility.yul\":4200:4222   */\n      lt\n        /* \"#utility.yul\":4179:4197   */\n      0xffffffffffffffff\n        /* \"#utility.yul\":4167:4177   */\n      dup3\n        /* \"#utility.yul\":4164:4198   */\n      gt\n        /* \"#utility.yul\":4161:4223   */\n      or\n        /* \"#utility.yul\":4158:4246   */\n      iszero\n      tag_240\n      jumpi\n        /* \"#utility.yul\":4226:4244   */\n      tag_241\n      tag_156\n      jump\t// in\n    tag_241:\n        /* \"#utility.yul\":4158:4246   */\n    tag_240:\n        /* \"#utility.yul\":4266:4276   */\n      dup1\n        /* \"#utility.yul\":4262:4264   */\n      0x40\n        /* \"#utility.yul\":4255:4277   */\n      mstore\n        /* \"#utility.yul\":4045:4283   */\n      pop\n        /* \"#utility.yul\":4002:4283   */\n      pop\n      pop\n      jump\t// out\n        /* \"#utility.yul\":4289:4418   */\n    tag_158:\n        /* \"#utility.yul\":4323:4329   */\n      0x00\n        /* \"#utility.yul\":4350:4370   */\n      tag_243\n      tag_136\n      jump\t// in\n    tag_243:\n        /* \"#utility.yul\":4340:4370   */\n      swap1\n      pop\n        /* \"#utility.yul\":4379:4412   */\n      tag_244\n        /* \"#utility.yul\":4407:4411   */\n      dup3\n        /* \"#utility.yul\":4399:4405   */\n      dup3\n        /* \"#utility.yul\":4379:4412   */\n      tag_157\n      jump\t// in\n    tag_244:\n        /* \"#utility.yul\":4289:4418   */\n      swap2\n      swap1\n      pop\n      jump\t// out\n        /* \"#utility.yul\":4424:4732   */\n    tag_159:\n        /* \"#utility.yul\":4486:4490   */\n      0x00\n        /* \"#utility.yul\":4576:4594   */\n      0xffffffffffffffff\n        /* \"#utility.yul\":4568:4574   */\n      dup3\n        /* \"#utility.yul\":4565:4595   */\n      gt\n        /* \"#utility.yul\":4562:4618   */\n      iszero\n      tag_246\n      jumpi\n        /* \"#utility.yul\":4598:4616   */\n      tag_247\n      tag_156\n      jump\t// in\n    tag_247:\n        /* \"#utility.yul\":4562:4618   */\n    tag_246:\n        /* \"#utility.yul\":4636:4665   */\n      tag_248\n        /* \"#utility.yul\":4658:4664   */\n      dup3\n        /* \"#utility.yul\":4636:4665   */\n      tag_148\n      jump\t// in\n    tag_248:\n        /* \"#utility.yul\":4628:4665   */\n      swap1\n      pop\n        /* \"#utility.yul\":4720:4724   */\n      0x20\n        /* \"#utility.yul\":4714:4718   */\n      dup2\n        /* \"#utility.yul\":4710:4725   */\n      add\n        /* \"#utility.yul\":4702:4725   */\n      swap1\n      pop\n        /* \"#utility.yul\":4424:4732   */\n      swap2\n      swap1\n      pop\n      jump\t// out\n        /* \"#utility.yul\":4738:4886   */\n    tag_160:\n        /* \"#utility.yul\":4836:4842   */\n      dup3\n        /* \"#utility.yul\":4831:4834   */\n      dup2\n        /* \"#utility.yul\":4826:4829   */\n      dup4\n        /* \"#utility.yul\":4813:4843   */\n      calldatacopy\n        /* \"#utility.yul\":4877:4878   */\n      0x00\n        /* \"#utility.yul\":4868:4874   */\n      dup4\n        /* \"#utility.yul\":4863:4866   */\n      dup4\n        /* \"#utility.yul\":4859:4875   */\n      add\n        /* \"#utility.yul\":4852:4879   */\n      mstore\n        /* \"#utility.yul\":4738:4886   */\n      pop\n      pop\n      pop\n      jump\t// out\n        /* \"#utility.yul\":4892:5317   */\n    tag_161:\n        /* \"#utility.yul\":4970:4975   */\n      0x00\n        /* \"#utility.yul\":4995:5061   */\n      tag_251\n        /* \"#utility.yul\":5011:5060   */\n      tag_252\n        /* \"#utility.yul\":5053:5059   */\n      dup5\n        /* \"#utility.yul\":5011:5060   */\n      tag_159\n      jump\t// in\n    tag_252:\n        /* \"#utility.yul\":4995:5061   */\n      tag_158\n      jump\t// in\n    tag_251:\n        /* \"#utility.yul\":4986:5061   */\n      swap1\n      pop\n        /* \"#utility.yul\":5084:5090   */\n      dup3\n        /* \"#utility.yul\":5077:5082   */\n      dup2\n        /* \"#utility.yul\":5070:5091   */\n      mstore\n        /* \"#utility.yul\":5122:5126   */\n      0x20\n        /* \"#utility.yul\":5115:5120   */\n      dup2\n        /* \"#utility.yul\":5111:5127   */\n      add\n        /* \"#utility.yul\":5160:5163   */\n      dup5\n        /* \"#utility.yul\":5151:5157   */\n      dup5\n        /* \"#utility.yul\":5146:5149   */\n      dup5\n        /* \"#utility.yul\":5142:5158   */\n      add\n        /* \"#utility.yul\":5139:5164   */\n      gt\n        /* \"#utility.yul\":5136:5248   */\n      iszero\n      tag_253\n      jumpi\n        /* \"#utility.yul\":5167:5246   */\n      tag_254\n      tag_155\n      jump\t// in\n    tag_254:\n        /* \"#utility.yul\":5136:5248   */\n    tag_253:\n        /* \"#utility.yul\":5257:5311   */\n      tag_255\n        /* \"#utility.yul\":5304:5310   */\n      dup5\n        /* \"#utility.yul\":5299:5302   */\n      dup3\n        /* \"#utility.yul\":5294:5297   */\n      dup6\n        /* \"#utility.yul\":5257:5311   */\n      tag_160\n      jump\t// in\n    tag_255:\n        /* \"#utility.yul\":4976:5317   */\n      pop\n        /* \"#utility.yul\":4892:5317   */\n      swap4\n      swap3\n      pop\n      pop\n      pop\n      jump\t// out\n        /* \"#utility.yul\":5337:5677   */\n    tag_162:\n        /* \"#utility.yul\":5393:5398   */\n      0x00\n        /* \"#utility.yul\":5442:5445   */\n      dup3\n        /* \"#utility.yul\":5435:5439   */\n      0x1f\n        /* \"#utility.yul\":5427:5433   */\n      dup4\n        /* \"#utility.yul\":5423:5440   */\n      add\n        /* \"#utility.yul\":5419:5446   */\n      slt\n        /* \"#utility.yul\":5409:5531   */\n      tag_257\n      jumpi\n        /* \"#utility.yul\":5450:5529   */\n      tag_258\n      tag_154\n      jump\t// in\n    tag_258:\n        /* \"#utility.yul\":5409:5531   */\n    tag_257:\n        /* \"#utility.yul\":5567:5573   */\n      dup2\n        /* \"#utility.yul\":5554:5574   */\n      calldataload\n        /* \"#utility.yul\":5592:5671   */\n      tag_259\n        /* \"#utility.yul\":5667:5670   */\n      dup5\n        /* \"#utility.yul\":5659:5665   */\n      dup3\n        /* \"#utility.yul\":5652:5656   */\n      0x20\n        /* \"#utility.yul\":5644:5650   */\n      dup7\n        /* \"#utility.yul\":5640:5657   */\n      add\n        /* \"#utility.yul\":5592:5671   */\n      tag_161\n      jump\t// in\n    tag_259:\n        /* \"#utility.yul\":5583:5671   */\n      swap2\n      pop\n        /* \"#utility.yul\":5399:5677   */\n      pop\n        /* \"#utility.yul\":5337:5677   */\n      swap3\n      swap2\n      pop\n      pop\n      jump\t// out\n        /* \"#utility.yul\":5683:6192   */\n    tag_19:\n        /* \"#utility.yul\":5752:5758   */\n      0x00\n        /* \"#utility.yul\":5801:5803   */\n      0x20\n        /* \"#utility.yul\":5789:5798   */\n      dup3\n        /* \"#utility.yul\":5780:5787   */\n      dup5\n        /* \"#utility.yul\":5776:5799   */\n      sub\n        /* \"#utility.yul\":5772:5804   */\n      slt\n        /* \"#utility.yul\":5769:5888   */\n      iszero\n      tag_261\n      jumpi\n        /* \"#utility.yul\":5807:5886   */\n      tag_262\n      tag_137\n      jump\t// in\n    tag_262:\n        /* \"#utility.yul\":5769:5888   */\n    tag_261:\n        /* \"#utility.yul\":5955:5956   */\n      0x00\n        /* \"#utility.yul\":5944:5953   */\n      dup3\n        /* \"#utility.yul\":5940:5957   */\n      add\n        /* \"#utility.yul\":5927:5958   */\n      calldataload\n        /* \"#utility.yul\":5985:6003   */\n      0xffffffffffffffff\n        /* \"#utility.yul\":5977:5983   */\n      dup2\n        /* \"#utility.yul\":5974:6004   */\n      gt\n        /* \"#utility.yul\":5971:6088   */\n      iszero\n      tag_263\n      jumpi\n        /* \"#utility.yul\":6007:6086   */\n      tag_264\n      tag_138\n      jump\t// in\n    tag_264:\n        /* \"#utility.yul\":5971:6088   */\n    tag_263:\n        /* \"#utility.yul\":6112:6175   */\n      tag_265\n        /* \"#utility.yul\":6167:6174   */\n      dup5\n        /* \"#utility.yul\":6158:6164   */\n      dup3\n        /* \"#utility.yul\":6147:6156   */\n      dup6\n        /* \"#utility.yul\":6143:6165   */\n      add\n        /* \"#utility.yul\":6112:6175   */\n      tag_162\n      jump\t// in\n    tag_265:\n        /* \"#utility.yul\":6102:6175   */\n      swap2\n      pop\n        /* \"#utility.yul\":5898:6185   */\n      pop\n        /* \"#utility.yul\":5683:6192   */\n      swap3\n      swap2\n      pop\n      pop\n      jump\t// out\n        /* \"#utility.yul\":6198:6316   */\n    tag_163:\n        /* \"#utility.yul\":6269:6291   */\n      tag_267\n        /* \"#utility.yul\":6285:6290   */\n      dup2\n        /* \"#utility.yul\":6269:6291   */\n      tag_150\n      jump\t// in\n    tag_267:\n        /* \"#utility.yul\":6262:6267   */\n      dup2\n        /* \"#utility.yul\":6259:6292   */\n      eq\n        /* \"#utility.yul\":6249:6310   */\n      tag_268\n      jumpi\n        /* \"#utility.yul\":6306:6307   */\n      0x00\n        /* \"#utility.yul\":6303:6304   */\n      dup1\n        /* \"#utility.yul\":6296:6308   */\n      revert\n        /* \"#utility.yul\":6249:6310   */\n    tag_268:\n        /* \"#utility.yul\":6198:6316   */\n      pop\n      jump\t// out\n        /* \"#utility.yul\":6322:6457   */\n    tag_164:\n        /* \"#utility.yul\":6366:6371   */\n      0x00\n        /* \"#utility.yul\":6404:6410   */\n      dup2\n        /* \"#utility.yul\":6391:6411   */\n      calldataload\n        /* \"#utility.yul\":6382:6411   */\n      swap1\n      pop\n        /* \"#utility.yul\":6420:6451   */\n      tag_270\n        /* \"#utility.yul\":6445:6450   */\n      dup2\n        /* \"#utility.yul\":6420:6451   */\n      tag_163\n      jump\t// in\n    tag_270:\n        /* \"#utility.yul\":6322:6457   */\n      swap3\n      swap2\n      pop\n      pop\n      jump\t// out\n        /* \"#utility.yul\":6463:6788   */\n    tag_23:\n        /* \"#utility.yul\":6520:6526   */\n      0x00\n        /* \"#utility.yul\":6569:6571   */\n      0x20\n        /* \"#utility.yul\":6557:6566   */\n      dup3\n        /* \"#utility.yul\":6548:6555   */\n      dup5\n        /* \"#utility.yul\":6544:6567   */\n      sub\n        /* \"#utility.yul\":6540:6572   */\n      slt\n        /* \"#utility.yul\":6537:6656   */\n      iszero\n      tag_272\n      jumpi\n        /* \"#utility.yul\":6575:6654   */\n      tag_273\n      tag_137\n      jump\t// in\n    tag_273:\n        /* \"#utility.yul\":6537:6656   */\n    tag_272:\n        /* \"#utility.yul\":6695:6696   */\n      0x00\n        /* \"#utility.yul\":6720:6771   */\n      tag_274\n        /* \"#utility.yul\":6763:6770   */\n      dup5\n        /* \"#utility.yul\":6754:6760   */\n      dup3\n        /* \"#utility.yul\":6743:6752   */\n      dup6\n        /* \"#utility.yul\":6739:6761   */\n      add\n        /* \"#utility.yul\":6720:6771   */\n      tag_164\n      jump\t// in\n    tag_274:\n        /* \"#utility.yul\":6710:6771   */\n      swap2\n      pop\n        /* \"#utility.yul\":6666:6781   */\n      pop\n        /* \"#utility.yul\":6463:6788   */\n      swap3\n      swap2\n      pop\n      pop\n      jump\t// out\n        /* \"#utility.yul\":6794:6974   */\n    tag_28:\n        /* \"#utility.yul\":6842:6919   */\n      0x4e487b7100000000000000000000000000000000000000000000000000000000\n        /* \"#utility.yul\":6839:6840   */\n      0x00\n        /* \"#utility.yul\":6832:6920   */\n      mstore\n        /* \"#utility.yul\":6939:6943   */\n      0x32\n        /* \"#utility.yul\":6936:6937   */\n      0x04\n        /* \"#utility.yul\":6929:6944   */\n      mstore\n        /* \"#utility.yul\":6963:6967   */\n      0x24\n        /* \"#utility.yul\":6960:6961   */\n      0x00\n        /* \"#utility.yul\":6953:6968   */\n      revert\n        /* \"#utility.yul\":6980:7160   */\n    tag_165:\n        /* \"#utility.yul\":7028:7105   */\n      0x4e487b7100000000000000000000000000000000000000000000000000000000\n        /* \"#utility.yul\":7025:7026   */\n      0x00\n        /* \"#utility.yul\":7018:7106   */\n      mstore\n        /* \"#utility.yul\":7125:7129   */\n      0x22\n        /* \"#utility.yul\":7122:7123   */\n      0x04\n        /* \"#utility.yul\":7115:7130   */\n      mstore\n        /* \"#utility.yul\":7149:7153   */\n      0x24\n        /* \"#utility.yul\":7146:7147   */\n      0x00\n        /* \"#utility.yul\":7139:7154   */\n      revert\n        /* \"#utility.yul\":7166:7486   */\n    tag_51:\n        /* \"#utility.yul\":7210:7216   */\n      0x00\n        /* \"#utility.yul\":7247:7248   */\n      0x02\n        /* \"#utility.yul\":7241:7245   */\n      dup3\n        /* \"#utility.yul\":7237:7249   */\n      div\n        /* \"#utility.yul\":7227:7249   */\n      swap1\n      pop\n        /* \"#utility.yul\":7294:7295   */\n      0x01\n        /* \"#utility.yul\":7288:7292   */\n      dup3\n        /* \"#utility.yul\":7284:7296   */\n      and\n        /* \"#utility.yul\":7315:7333   */\n      dup1\n        /* \"#utility.yul\":7305:7386   */\n      tag_278\n      jumpi\n        /* \"#utility.yul\":7371:7375   */\n      0x7f\n        /* \"#utility.yul\":7363:7369   */\n      dup3\n        /* \"#utility.yul\":7359:7376   */\n      and\n        /* \"#utility.yul\":7349:7376   */\n      swap2\n      pop\n        /* \"#utility.yul\":7305:7386   */\n    tag_278:\n        /* \"#utility.yul\":7433:7435   */\n      0x20\n        /* \"#utility.yul\":7425:7431   */\n      dup3\n        /* \"#utility.yul\":7422:7436   */\n      lt\n        /* \"#utility.yul\":7402:7420   */\n      dup2\n        /* \"#utility.yul\":7399:7437   */\n      sub\n        /* \"#utility.yul\":7396:7480   */\n      tag_279\n      jumpi\n        /* \"#utility.yul\":7452:7470   */\n      tag_280\n      tag_165\n      jump\t// in\n    tag_280:\n        /* \"#utility.yul\":7396:7480   */\n    tag_279:\n        /* \"#utility.yul\":7217:7486   */\n      pop\n        /* \"#utility.yul\":7166:7486   */\n      swap2\n      swap1\n      pop\n      jump\t// out\n        /* \"#utility.yul\":7492:7657   */\n    tag_166:\n        /* \"#utility.yul\":7632:7649   */\n      0x74776f20706c61796572206f6e6c790000000000000000000000000000000000\n        /* \"#utility.yul\":7628:7629   */\n      0x00\n        /* \"#utility.yul\":7620:7626   */\n      dup3\n        /* \"#utility.yul\":7616:7630   */\n      add\n        /* \"#utility.yul\":7609:7650   */\n      mstore\n        /* \"#utility.yul\":7492:7657   */\n      pop\n      jump\t// out\n        /* \"#utility.yul\":7663:8029   */\n    tag_167:\n        /* \"#utility.yul\":7805:7808   */\n      0x00\n        /* \"#utility.yul\":7826:7893   */\n      tag_283\n        /* \"#utility.yul\":7890:7892   */\n      0x0f\n        /* \"#utility.yul\":7885:7888   */\n      dup4\n        /* \"#utility.yul\":7826:7893   */\n      tag_146\n      jump\t// in\n    tag_283:\n        /* \"#utility.yul\":7819:7893   */\n      swap2\n      pop\n        /* \"#utility.yul\":7902:7995   */\n      tag_284\n        /* \"#utility.yul\":7991:7994   */\n      dup3\n        /* \"#utility.yul\":7902:7995   */\n      tag_166\n      jump\t// in\n    tag_284:\n        /* \"#utility.yul\":8020:8022   */\n      0x20\n        /* \"#utility.yul\":8015:8018   */\n      dup3\n        /* \"#utility.yul\":8011:8023   */\n      add\n        /* \"#utility.yul\":8004:8023   */\n      swap1\n      pop\n        /* \"#utility.yul\":7663:8029   */\n      swap2\n      swap1\n      pop\n      jump\t// out\n        /* \"#utility.yul\":8035:8454   */\n    tag_59:\n        /* \"#utility.yul\":8201:8205   */\n      0x00\n        /* \"#utility.yul\":8239:8241   */\n      0x20\n        /* \"#utility.yul\":8228:8237   */\n      dup3\n        /* \"#utility.yul\":8224:8242   */\n      add\n        /* \"#utility.yul\":8216:8242   */\n      swap1\n      pop\n        /* \"#utility.yul\":8288:8297   */\n      dup2\n        /* \"#utility.yul\":8282:8286   */\n      dup2\n        /* \"#utility.yul\":8278:8298   */\n      sub\n        /* \"#utility.yul\":8274:8275   */\n      0x00\n        /* \"#utility.yul\":8263:8272   */\n      dup4\n        /* \"#utility.yul\":8259:8276   */\n      add\n        /* \"#utility.yul\":8252:8299   */\n      mstore\n        /* \"#utility.yul\":8316:8447   */\n      tag_286\n        /* \"#utility.yul\":8442:8446   */\n      dup2\n        /* \"#utility.yul\":8316:8447   */\n      tag_167\n      jump\t// in\n    tag_286:\n        /* \"#utility.yul\":8308:8447   */\n      swap1\n      pop\n        /* \"#utility.yul\":8035:8454   */\n      swap2\n      swap1\n      pop\n      jump\t// out\n        /* \"#utility.yul\":8460:8608   */\n    tag_168:\n        /* \"#utility.yul\":8562:8573   */\n      0x00\n        /* \"#utility.yul\":8599:8602   */\n      dup2\n        /* \"#utility.yul\":8584:8602   */\n      swap1\n      pop\n        /* \"#utility.yul\":8460:8608   */\n      swap3\n      swap2\n      pop\n      pop\n      jump\t// out\n        /* \"#utility.yul\":8614:9004   */\n    tag_169:\n        /* \"#utility.yul\":8720:8723   */\n      0x00\n        /* \"#utility.yul\":8748:8787   */\n      tag_289\n        /* \"#utility.yul\":8781:8786   */\n      dup3\n        /* \"#utility.yul\":8748:8787   */\n      tag_145\n      jump\t// in\n    tag_289:\n        /* \"#utility.yul\":8803:8892   */\n      tag_290\n        /* \"#utility.yul\":8885:8891   */\n      dup2\n        /* \"#utility.yul\":8880:8883   */\n      dup6\n        /* \"#utility.yul\":8803:8892   */\n      tag_168\n      jump\t// in\n    tag_290:\n        /* \"#utility.yul\":8796:8892   */\n      swap4\n      pop\n        /* \"#utility.yul\":8901:8966   */\n      tag_291\n        /* \"#utility.yul\":8959:8965   */\n      dup2\n        /* \"#utility.yul\":8954:8957   */\n      dup6\n        /* \"#utility.yul\":8947:8951   */\n      0x20\n        /* \"#utility.yul\":8940:8945   */\n      dup7\n        /* \"#utility.yul\":8936:8952   */\n      add\n        /* \"#utility.yul\":8901:8966   */\n      tag_147\n      jump\t// in\n    tag_291:\n        /* \"#utility.yul\":8991:8997   */\n      dup1\n        /* \"#utility.yul\":8986:8989   */\n      dup5\n        /* \"#utility.yul\":8982:8998   */\n      add\n        /* \"#utility.yul\":8975:8998   */\n      swap2\n      pop\n        /* \"#utility.yul\":8724:9004   */\n      pop\n        /* \"#utility.yul\":8614:9004   */\n      swap3\n      swap2\n      pop\n      pop\n      jump\t// out\n        /* \"#utility.yul\":9010:9285   */\n    tag_64:\n        /* \"#utility.yul\":9142:9145   */\n      0x00\n        /* \"#utility.yul\":9164:9259   */\n      tag_293\n        /* \"#utility.yul\":9255:9258   */\n      dup3\n        /* \"#utility.yul\":9246:9252   */\n      dup5\n        /* \"#utility.yul\":9164:9259   */\n      tag_169\n      jump\t// in\n    tag_293:\n        /* \"#utility.yul\":9157:9259   */\n      swap2\n      pop\n        /* \"#utility.yul\":9276:9279   */\n      dup2\n        /* \"#utility.yul\":9269:9279   */\n      swap1\n      pop\n        /* \"#utility.yul\":9010:9285   */\n      swap3\n      swap2\n      pop\n      pop\n      jump\t// out\n        /* \"#utility.yul\":9291:9432   */\n    tag_170:\n        /* \"#utility.yul\":9340:9344   */\n      0x00\n        /* \"#utility.yul\":9363:9366   */\n      dup2\n        /* \"#utility.yul\":9355:9366   */\n      swap1\n      pop\n        /* \"#utility.yul\":9386:9389   */\n      dup2\n        /* \"#utility.yul\":9383:9384   */\n      0x00\n        /* \"#utility.yul\":9376:9390   */\n      mstore\n        /* \"#utility.yul\":9420:9424   */\n      0x20\n        /* \"#utility.yul\":9417:9418   */\n      0x00\n        /* \"#utility.yul\":9407:9425   */\n      keccak256\n        /* \"#utility.yul\":9399:9425   */\n      swap1\n      pop\n        /* \"#utility.yul\":9291:9432   */\n      swap2\n      swap1\n      pop\n      jump\t// out\n        /* \"#utility.yul\":9462:10336   */\n    tag_171:\n        /* \"#utility.yul\":9565:9568   */\n      0x00\n        /* \"#utility.yul\":9602:9607   */\n      dup2\n        /* \"#utility.yul\":9596:9608   */\n      sload\n        /* \"#utility.yul\":9631:9667   */\n      tag_296\n        /* \"#utility.yul\":9657:9666   */\n      dup2\n        /* \"#utility.yul\":9631:9667   */\n      tag_51\n      jump\t// in\n    tag_296:\n        /* \"#utility.yul\":9683:9772   */\n      tag_297\n        /* \"#utility.yul\":9765:9771   */\n      dup2\n        /* \"#utility.yul\":9760:9763   */\n      dup7\n        /* \"#utility.yul\":9683:9772   */\n      tag_168\n      jump\t// in\n    tag_297:\n        /* \"#utility.yul\":9676:9772   */\n      swap5\n      pop\n        /* \"#utility.yul\":9803:9804   */\n      0x01\n        /* \"#utility.yul\":9792:9801   */\n      dup3\n        /* \"#utility.yul\":9788:9805   */\n      and\n        /* \"#utility.yul\":9819:9820   */\n      0x00\n        /* \"#utility.yul\":9814:9980   */\n      dup2\n      eq\n      tag_299\n      jumpi\n        /* \"#utility.yul\":9994:9995   */\n      0x01\n        /* \"#utility.yul\":9989:10330   */\n      dup2\n      eq\n      tag_300\n      jumpi\n        /* \"#utility.yul\":9781:10330   */\n      jump(tag_298)\n        /* \"#utility.yul\":9814:9980   */\n    tag_299:\n        /* \"#utility.yul\":9898:9902   */\n      0xff\n        /* \"#utility.yul\":9894:9903   */\n      not\n        /* \"#utility.yul\":9883:9892   */\n      dup4\n        /* \"#utility.yul\":9879:9904   */\n      and\n        /* \"#utility.yul\":9874:9877   */\n      dup7\n        /* \"#utility.yul\":9867:9905   */\n      mstore\n        /* \"#utility.yul\":9960:9966   */\n      dup2\n        /* \"#utility.yul\":9953:9967   */\n      iszero\n        /* \"#utility.yul\":9946:9968   */\n      iszero\n        /* \"#utility.yul\":9938:9944   */\n      dup3\n        /* \"#utility.yul\":9934:9969   */\n      mul\n        /* \"#utility.yul\":9929:9932   */\n      dup7\n        /* \"#utility.yul\":9925:9970   */\n      add\n        /* \"#utility.yul\":9918:9970   */\n      swap4\n      pop\n        /* \"#utility.yul\":9814:9980   */\n      jump(tag_298)\n        /* \"#utility.yul\":9989:10330   */\n    tag_300:\n        /* \"#utility.yul\":10056:10094   */\n      tag_301\n        /* \"#utility.yul\":10088:10093   */\n      dup6\n        /* \"#utility.yul\":10056:10094   */\n      tag_170\n      jump\t// in\n    tag_301:\n        /* \"#utility.yul\":10116:10117   */\n      0x00\n        /* \"#utility.yul\":10130:10284   */\n    tag_302:\n        /* \"#utility.yul\":10144:10150   */\n      dup4\n        /* \"#utility.yul\":10141:10142   */\n      dup2\n        /* \"#utility.yul\":10138:10151   */\n      lt\n        /* \"#utility.yul\":10130:10284   */\n      iszero\n      tag_304\n      jumpi\n        /* \"#utility.yul\":10218:10225   */\n      dup2\n        /* \"#utility.yul\":10212:10226   */\n      sload\n        /* \"#utility.yul\":10208:10209   */\n      dup2\n        /* \"#utility.yul\":10203:10206   */\n      dup10\n        /* \"#utility.yul\":10199:10210   */\n      add\n        /* \"#utility.yul\":10192:10227   */\n      mstore\n        /* \"#utility.yul\":10268:10269   */\n      0x01\n        /* \"#utility.yul\":10259:10266   */\n      dup3\n        /* \"#utility.yul\":10255:10270   */\n      add\n        /* \"#utility.yul\":10244:10270   */\n      swap2\n      pop\n        /* \"#utility.yul\":10166:10170   */\n      0x20\n        /* \"#utility.yul\":10163:10164   */\n      dup2\n        /* \"#utility.yul\":10159:10171   */\n      add\n        /* \"#utility.yul\":10154:10171   */\n      swap1\n      pop\n        /* \"#utility.yul\":10130:10284   */\n      jump(tag_302)\n    tag_304:\n        /* \"#utility.yul\":10313:10319   */\n      dup4\n        /* \"#utility.yul\":10308:10311   */\n      dup9\n        /* \"#utility.yul\":10304:10320   */\n      add\n        /* \"#utility.yul\":10297:10320   */\n      swap6\n      pop\n        /* \"#utility.yul\":9996:10330   */\n      pop\n      pop\n        /* \"#utility.yul\":9781:10330   */\n    tag_298:\n      pop\n        /* \"#utility.yul\":9569:10336   */\n      pop\n      pop\n        /* \"#utility.yul\":9462:10336   */\n      swap3\n      swap2\n      pop\n      pop\n      jump\t// out\n        /* \"#utility.yul\":10342:10611   */\n    tag_69:\n        /* \"#utility.yul\":10471:10474   */\n      0x00\n        /* \"#utility.yul\":10493:10585   */\n      tag_306\n        /* \"#utility.yul\":10581:10584   */\n      dup3\n        /* \"#utility.yul\":10572:10578   */\n      dup5\n        /* \"#utility.yul\":10493:10585   */\n      tag_171\n      jump\t// in\n    tag_306:\n        /* \"#utility.yul\":10486:10585   */\n      swap2\n      pop\n        /* \"#utility.yul\":10602:10605   */\n      dup2\n        /* \"#utility.yul\":10595:10605   */\n      swap1\n      pop\n        /* \"#utility.yul\":10342:10611   */\n      swap3\n      swap2\n      pop\n      pop\n      jump\t// out\n        /* \"#utility.yul\":10617:10819   */\n    tag_172:\n        /* \"#utility.yul\":10786:10812   */\n      0x20706c6179657220616c72656164792072656769737465720000000000000000\n        /* \"#utility.yul\":10781:10784   */\n      dup2\n        /* \"#utility.yul\":10774:10813   */\n      mstore\n        /* \"#utility.yul\":10617:10819   */\n      pop\n      jump\t// out\n        /* \"#utility.yul\":10825:11367   */\n    tag_71:\n        /* \"#utility.yul\":11048:11051   */\n      0x00\n        /* \"#utility.yul\":11070:11165   */\n      tag_309\n        /* \"#utility.yul\":11161:11164   */\n      dup3\n        /* \"#utility.yul\":11152:11158   */\n      dup5\n        /* \"#utility.yul\":11070:11165   */\n      tag_169\n      jump\t// in\n    tag_309:\n        /* \"#utility.yul\":11063:11165   */\n      swap2\n      pop\n        /* \"#utility.yul\":11175:11313   */\n      tag_310\n        /* \"#utility.yul\":11309:11312   */\n      dup3\n        /* \"#utility.yul\":11175:11313   */\n      tag_172\n      jump\t// in\n    tag_310:\n        /* \"#utility.yul\":11338:11340   */\n      0x18\n        /* \"#utility.yul\":11333:11336   */\n      dup3\n        /* \"#utility.yul\":11329:11341   */\n      add\n        /* \"#utility.yul\":11322:11341   */\n      swap2\n      pop\n        /* \"#utility.yul\":11358:11361   */\n      dup2\n        /* \"#utility.yul\":11351:11361   */\n      swap1\n      pop\n        /* \"#utility.yul\":10825:11367   */\n      swap3\n      swap2\n      pop\n      pop\n      jump\t// out\n        /* \"#utility.yul\":11373:11686   */\n    tag_74:\n        /* \"#utility.yul\":11486:11490   */\n      0x00\n        /* \"#utility.yul\":11524:11526   */\n      0x20\n        /* \"#utility.yul\":11513:11522   */\n      dup3\n        /* \"#utility.yul\":11509:11527   */\n      add\n        /* \"#utility.yul\":11501:11527   */\n      swap1\n      pop\n        /* \"#utility.yul\":11573:11582   */\n      dup2\n        /* \"#utility.yul\":11567:11571   */\n      dup2\n        /* \"#utility.yul\":11563:11583   */\n      sub\n        /* \"#utility.yul\":11559:11560   */\n      0x00\n        /* \"#utility.yul\":11548:11557   */\n      dup4\n        /* \"#utility.yul\":11544:11561   */\n      add\n        /* \"#utility.yul\":11537:11584   */\n      mstore\n        /* \"#utility.yul\":11601:11679   */\n      tag_312\n        /* \"#utility.yul\":11674:11678   */\n      dup2\n        /* \"#utility.yul\":11665:11671   */\n      dup5\n        /* \"#utility.yul\":11601:11679   */\n      tag_149\n      jump\t// in\n    tag_312:\n        /* \"#utility.yul\":11593:11679   */\n      swap1\n      pop\n        /* \"#utility.yul\":11373:11686   */\n      swap3\n      swap2\n      pop\n      pop\n      jump\t// out\n        /* \"#utility.yul\":11692:11785   */\n    tag_173:\n        /* \"#utility.yul\":11729:11735   */\n      0x00\n        /* \"#utility.yul\":11776:11778   */\n      0x20\n        /* \"#utility.yul\":11771:11773   */\n      0x1f\n        /* \"#utility.yul\":11764:11769   */\n      dup4\n        /* \"#utility.yul\":11760:11774   */\n      add\n        /* \"#utility.yul\":11756:11779   */\n      div\n        /* \"#utility.yul\":11746:11779   */\n      swap1\n      pop\n        /* \"#utility.yul\":11692:11785   */\n      swap2\n      swap1\n      pop\n      jump\t// out\n        /* \"#utility.yul\":11791:11898   */\n    tag_174:\n        /* \"#utility.yul\":11835:11843   */\n      0x00\n        /* \"#utility.yul\":11885:11890   */\n      dup3\n        /* \"#utility.yul\":11879:11883   */\n      dup3\n        /* \"#utility.yul\":11875:11891   */\n      shl\n        /* \"#utility.yul\":11854:11891   */\n      swap1\n      pop\n        /* \"#utility.yul\":11791:11898   */\n      swap3\n      swap2\n      pop\n      pop\n      jump\t// out\n        /* \"#utility.yul\":11904:12297   */\n    tag_175:\n        /* \"#utility.yul\":11973:11979   */\n      0x00\n        /* \"#utility.yul\":12023:12024   */\n      0x08\n        /* \"#utility.yul\":12011:12021   */\n      dup4\n        /* \"#utility.yul\":12007:12025   */\n      mul\n        /* \"#utility.yul\":12046:12143   */\n      tag_316\n        /* \"#utility.yul\":12076:12142   */\n      0xffffffffffffffffffffffffffffffffffffffffffffffffffffffffffffffff\n        /* \"#utility.yul\":12065:12074   */\n      dup3\n        /* \"#utility.yul\":12046:12143   */\n      tag_174\n      jump\t// in\n    tag_316:\n        /* \"#utility.yul\":12164:12203   */\n      tag_317\n        /* \"#utility.yul\":12194:12202   */\n      dup7\n        /* \"#utility.yul\":12183:12192   */\n      dup4\n        /* \"#utility.yul\":12164:12203   */\n      tag_174\n      jump\t// in\n    tag_317:\n        /* \"#utility.yul\":12152:12203   */\n      swap6\n      pop\n        /* \"#utility.yul\":12236:12240   */\n      dup1\n        /* \"#utility.yul\":12232:12241   */\n      not\n        /* \"#utility.yul\":12225:12230   */\n      dup5\n        /* \"#utility.yul\":12221:12242   */\n      and\n        /* \"#utility.yul\":12212:12242   */\n      swap4\n      pop\n        /* \"#utility.yul\":12285:12289   */\n      dup1\n        /* \"#utility.yul\":12275:12283   */\n      dup7\n        /* \"#utility.yul\":12271:12290   */\n      and\n        /* \"#utility.yul\":12264:12269   */\n      dup5\n        /* \"#utility.yul\":12261:12291   */\n      or\n        /* \"#utility.yul\":12251:12291   */\n      swap3\n      pop\n        /* \"#utility.yul\":11980:12297   */\n      pop\n      pop\n        /* \"#utility.yul\":11904:12297   */\n      swap4\n      swap3\n      pop\n      pop\n      pop\n      jump\t// out\n        /* \"#utility.yul\":12303:12363   */\n    tag_176:\n        /* \"#utility.yul\":12331:12334   */\n      0x00\n        /* \"#utility.yul\":12352:12357   */\n      dup2\n        /* \"#utility.yul\":12345:12357   */\n      swap1\n      pop\n        /* \"#utility.yul\":12303:12363   */\n      swap2\n      swap1\n      pop\n      jump\t// out\n        /* \"#utility.yul\":12369:12511   */\n    tag_177:\n        /* \"#utility.yul\":12419:12428   */\n      0x00\n        /* \"#utility.yul\":12452:12505   */\n      tag_320\n        /* \"#utility.yul\":12470:12504   */\n      tag_321\n        /* \"#utility.yul\":12479:12503   */\n      tag_322\n        /* \"#utility.yul\":12497:12502   */\n      dup5\n        /* \"#utility.yul\":12479:12503   */\n      tag_152\n      jump\t// in\n    tag_322:\n        /* \"#utility.yul\":12470:12504   */\n      tag_176\n      jump\t// in\n    tag_321:\n        /* \"#utility.yul\":12452:12505   */\n      tag_152\n      jump\t// in\n    tag_320:\n        /* \"#utility.yul\":12439:12505   */\n      swap1\n      pop\n        /* \"#utility.yul\":12369:12511   */\n      swap2\n      swap1\n      pop\n      jump\t// out\n        /* \"#utility.yul\":12517:12592   */\n    tag_178:\n        /* \"#utility.yul\":12560:12563   */\n      0x00\n        /* \"#utility.yul\":12581:12586   */\n      dup2\n        /* \"#utility.yul\":12574:12586   */\n      swap1\n      pop\n        /* \"#utility.yul\":12517:12592   */\n      swap2\n      swap1\n      pop\n      jump\t// out\n        /* \"#utility.yul\":12598:12867   */\n    tag_179:\n        /* \"#utility.yul\":12708:12747   */\n      tag_325\n        /* \"#utility.yul\":12739:12746   */\n      dup4\n        /* \"#utility.yul\":12708:12747   */\n      tag_177\n      jump\t// in\n    tag_325:\n        /* \"#utility.yul\":12769:12860   */\n      tag_326\n        /* \"#utility.yul\":12818:12859   */\n      tag_327\n        /* \"#utility.yul\":12842:12858   */\n      dup3\n        /* \"#utility.yul\":12818:12859   */\n      tag_178\n      jump\t// in\n    tag_327:\n        /* \"#utility.yul\":12810:12816   */\n      dup5\n        /* \"#utility.yul\":12803:12807   */\n      dup5\n        /* \"#utility.yul\":12797:12808   */\n      sload\n        /* \"#utility.yul\":12769:12860   */\n      tag_175\n      jump\t// in\n    tag_326:\n        /* \"#utility.yul\":12763:12767   */\n      dup3\n        /* \"#utility.yul\":12756:12861   */\n      sstore\n        /* \"#utility.yul\":12674:12867   */\n      pop\n        /* \"#utility.yul\":12598:12867   */\n      pop\n      pop\n      pop\n      jump\t// out\n        /* \"#utility.yul\":12873:12946   */\n    tag_180:\n        /* \"#utility.yul\":12918:12921   */\n      0x00\n        /* \"#utility.yul\":12873:12946   */\n      swap1\n      jump\t// out\n        /* \"#utility.yul\":12952:13141   */\n    tag_181:\n        /* \"#utility.yul\":13029:13061   */\n      tag_330\n      tag_180\n      jump\t// in\n    tag_330:\n        /* \"#utility.yul\":13070:13135   */\n      tag_331\n        /* \"#utility.yul\":13128:13134   */\n      dup2\n        /* \"#utility.yul\":13120:13126   */\n      dup5\n        /* \"#utility.yul\":13114:13118   */\n      dup5\n        /* \"#utility.yul\":13070:13135   */\n      tag_179\n      jump\t// in\n    tag_331:\n        /* \"#utility.yul\":13005:13141   */\n      pop\n        /* \"#utility.yul\":12952:13141   */\n      pop\n      pop\n      jump\t// out\n        /* \"#utility.yul\":13147:13333   */\n    tag_182:\n        /* \"#utility.yul\":13207:13327   */\n    tag_333:\n        /* \"#utility.yul\":13224:13227   */\n      dup2\n        /* \"#utility.yul\":13217:13222   */\n      dup2\n        /* \"#utility.yul\":13214:13228   */\n      lt\n        /* \"#utility.yul\":13207:13327   */\n      iszero\n      tag_335\n      jumpi\n        /* \"#utility.yul\":13278:13317   */\n      tag_336\n        /* \"#utility.yul\":13315:13316   */\n      0x00\n        /* \"#utility.yul\":13308:13313   */\n      dup3\n        /* \"#utility.yul\":13278:13317   */\n      tag_181\n      jump\t// in\n    tag_336:\n        /* \"#utility.yul\":13251:13252   */\n      0x01\n        /* \"#utility.yul\":13244:13249   */\n      dup2\n        /* \"#utility.yul\":13240:13253   */\n      add\n        /* \"#utility.yul\":13231:13253   */\n      swap1\n      pop\n        /* \"#utility.yul\":13207:13327   */\n      jump(tag_333)\n    tag_335:\n        /* \"#utility.yul\":13147:13333   */\n      pop\n      pop\n      jump\t// out\n        /* \"#utility.yul\":13339:13882   */\n    tag_183:\n        /* \"#utility.yul\":13440:13442   */\n      0x1f\n        /* \"#utility.yul\":13435:13438   */\n      dup3\n        /* \"#utility.yul\":13432:13443   */\n      gt\n        /* \"#utility.yul\":13429:13875   */\n      iszero\n      tag_338\n      jumpi\n        /* \"#utility.yul\":13474:13512   */\n      tag_339\n        /* \"#utility.yul\":13506:13511   */\n      dup2\n        /* \"#utility.yul\":13474:13512   */\n      tag_170\n      jump\t// in\n    tag_339:\n        /* \"#utility.yul\":13558:13587   */\n      tag_340\n        /* \"#utility.yul\":13576:13586   */\n      dup5\n        /* \"#utility.yul\":13558:13587   */\n      tag_173\n      jump\t// in\n    tag_340:\n        /* \"#utility.yul\":13548:13556   */\n      dup2\n        /* \"#utility.yul\":13544:13588   */\n      add\n        /* \"#utility.yul\":13741:13743   */\n      0x20\n        /* \"#utility.yul\":13729:13739   */\n      dup6\n        /* \"#utility.yul\":13726:13744   */\n      lt\n        /* \"#utility.yul\":13723:13772   */\n      iszero\n      tag_341\n      jumpi\n        /* \"#utility.yul\":13762:13770   */\n      dup2\n        /* \"#utility.yul\":13747:13770   */\n      swap1\n      pop\n        /* \"#utility.yul\":13723:13772   */\n    tag_341:\n        /* \"#utility.yul\":13785:13865   */\n      tag_342\n        /* \"#utility.yul\":13841:13863   */\n      tag_343\n        /* \"#utility.yul\":13859:13862   */\n      dup6\n        /* \"#utility.yul\":13841:13863   */\n      tag_173\n      jump\t// in\n    tag_343:\n        /* \"#utility.yul\":13831:13839   */\n      dup4\n        /* \"#utility.yul\":13827:13864   */\n      add\n        /* \"#utility.yul\":13814:13825   */\n      dup3\n        /* \"#utility.yul\":13785:13865   */\n      tag_182\n      jump\t// in\n    tag_342:\n        /* \"#utility.yul\":13444:13875   */\n      pop\n      pop\n        /* \"#utility.yul\":13429:13875   */\n    tag_338:\n        /* \"#utility.yul\":13339:13882   */\n      pop\n      pop\n      pop\n      jump\t// out\n        /* \"#utility.yul\":13888:14005   */\n    tag_184:\n        /* \"#utility.yul\":13942:13950   */\n      0x00\n        /* \"#utility.yul\":13992:13997   */\n      dup3\n        /* \"#utility.yul\":13986:13990   */\n      dup3\n        /* \"#utility.yul\":13982:13998   */\n      shr\n        /* \"#utility.yul\":13961:13998   */\n      swap1\n      pop\n        /* \"#utility.yul\":13888:14005   */\n      swap3\n      swap2\n      pop\n      pop\n      jump\t// out\n        /* \"#utility.yul\":14011:14180   */\n    tag_185:\n        /* \"#utility.yul\":14055:14061   */\n      0x00\n        /* \"#utility.yul\":14088:14139   */\n      tag_346\n        /* \"#utility.yul\":14136:14137   */\n      0x00\n        /* \"#utility.yul\":14132:14138   */\n      not\n        /* \"#utility.yul\":14124:14129   */\n      dup5\n        /* \"#utility.yul\":14121:14122   */\n      0x08\n        /* \"#utility.yul\":14117:14130   */\n      mul\n        /* \"#utility.yul\":14088:14139   */\n      tag_184\n      jump\t// in\n    tag_346:\n        /* \"#utility.yul\":14084:14140   */\n      not\n        /* \"#utility.yul\":14169:14173   */\n      dup1\n        /* \"#utility.yul\":14163:14167   */\n      dup4\n        /* \"#utility.yul\":14159:14174   */\n      and\n        /* \"#utility.yul\":14149:14174   */\n      swap2\n      pop\n        /* \"#utility.yul\":14062:14180   */\n      pop\n        /* \"#utility.yul\":14011:14180   */\n      swap3\n      swap2\n      pop\n      pop\n      jump\t// out\n        /* \"#utility.yul\":14185:14480   */\n    tag_186:\n        /* \"#utility.yul\":14261:14265   */\n      0x00\n        /* \"#utility.yul\":14407:14436   */\n      tag_348\n        /* \"#utility.yul\":14432:14435   */\n      dup4\n        /* \"#utility.yul\":14426:14430   */\n      dup4\n        /* \"#utility.yul\":14407:14436   */\n      tag_185\n      jump\t// in\n    tag_348:\n        /* \"#utility.yul\":14399:14436   */\n      swap2\n      pop\n        /* \"#utility.yul\":14469:14472   */\n      dup3\n        /* \"#utility.yul\":14466:14467   */\n      0x02\n        /* \"#utility.yul\":14462:14473   */\n      mul\n        /* \"#utility.yul\":14456:14460   */\n      dup3\n        /* \"#utility.yul\":14453:14474   */\n      or\n        /* \"#utility.yul\":14445:14474   */\n      swap1\n      pop\n        /* \"#utility.yul\":14185:14480   */\n      swap3\n      swap2\n      pop\n      pop\n      jump\t// out\n        /* \"#utility.yul\":14485:15880   */\n    tag_82:\n        /* \"#utility.yul\":14602:14639   */\n      tag_350\n        /* \"#utility.yul\":14635:14638   */\n      dup3\n        /* \"#utility.yul\":14602:14639   */\n      tag_145\n      jump\t// in\n    tag_350:\n        /* \"#utility.yul\":14704:14722   */\n      0xffffffffffffffff\n        /* \"#utility.yul\":14696:14702   */\n      dup2\n        /* \"#utility.yul\":14693:14723   */\n      gt\n        /* \"#utility.yul\":14690:14746   */\n      iszero\n      tag_351\n      jumpi\n        /* \"#utility.yul\":14726:14744   */\n      tag_352\n      tag_156\n      jump\t// in\n    tag_352:\n        /* \"#utility.yul\":14690:14746   */\n    tag_351:\n        /* \"#utility.yul\":14770:14808   */\n      tag_353\n        /* \"#utility.yul\":14802:14806   */\n      dup3\n        /* \"#utility.yul\":14796:14807   */\n      sload\n        /* \"#utility.yul\":14770:14808   */\n      tag_51\n      jump\t// in\n    tag_353:\n        /* \"#utility.yul\":14855:14922   */\n      tag_354\n        /* \"#utility.yul\":14915:14921   */\n      dup3\n        /* \"#utility.yul\":14907:14913   */\n      dup3\n        /* \"#utility.yul\":14901:14905   */\n      dup6\n        /* \"#utility.yul\":14855:14922   */\n      tag_183\n      jump\t// in\n    tag_354:\n        /* \"#utility.yul\":14949:14950   */\n      0x00\n        /* \"#utility.yul\":14973:14977   */\n      0x20\n        /* \"#utility.yul\":14960:14977   */\n      swap1\n      pop\n        /* \"#utility.yul\":15005:15007   */\n      0x1f\n        /* \"#utility.yul\":14997:15003   */\n      dup4\n        /* \"#utility.yul\":14994:15008   */\n      gt\n        /* \"#utility.yul\":15022:15023   */\n      0x01\n        /* \"#utility.yul\":15017:15635   */\n      dup2\n      eq\n      tag_356\n      jumpi\n        /* \"#utility.yul\":15679:15680   */\n      0x00\n        /* \"#utility.yul\":15696:15702   */\n      dup5\n        /* \"#utility.yul\":15693:15770   */\n      iszero\n      tag_357\n      jumpi\n        /* \"#utility.yul\":15745:15754   */\n      dup3\n        /* \"#utility.yul\":15740:15743   */\n      dup8\n        /* \"#utility.yul\":15736:15755   */\n      add\n        /* \"#utility.yul\":15730:15756   */\n      mload\n        /* \"#utility.yul\":15721:15756   */\n      swap1\n      pop\n        /* \"#utility.yul\":15693:15770   */\n    tag_357:\n        /* \"#utility.yul\":15796:15863   */\n      tag_358\n        /* \"#utility.yul\":15856:15862   */\n      dup6\n        /* \"#utility.yul\":15849:15854   */\n      dup3\n        /* \"#utility.yul\":15796:15863   */\n      tag_186\n      jump\t// in\n    tag_358:\n        /* \"#utility.yul\":15790:15794   */\n      dup7\n        /* \"#utility.yul\":15783:15864   */\n      sstore\n        /* \"#utility.yul\":15652:15874   */\n      pop\n        /* \"#utility.yul\":14987:15874   */\n      jump(tag_355)\n        /* \"#utility.yul\":15017:15635   */\n    tag_356:\n        /* \"#utility.yul\":15069:15073   */\n      0x1f\n        /* \"#utility.yul\":15065:15074   */\n      not\n        /* \"#utility.yul\":15057:15063   */\n      dup5\n        /* \"#utility.yul\":15053:15075   */\n      and\n        /* \"#utility.yul\":15103:15140   */\n      tag_359\n        /* \"#utility.yul\":15135:15139   */\n      dup7\n        /* \"#utility.yul\":15103:15140   */\n      tag_170\n      jump\t// in\n    tag_359:\n        /* \"#utility.yul\":15162:15163   */\n      0x00\n        /* \"#utility.yul\":15176:15384   */\n    tag_360:\n        /* \"#utility.yul\":15190:15197   */\n      dup3\n        /* \"#utility.yul\":15187:15188   */\n      dup2\n        /* \"#utility.yul\":15184:15198   */\n      lt\n        /* \"#utility.yul\":15176:15384   */\n      iszero\n      tag_362\n      jumpi\n        /* \"#utility.yul\":15269:15278   */\n      dup5\n        /* \"#utility.yul\":15264:15267   */\n      dup10\n        /* \"#utility.yul\":15260:15279   */\n      add\n        /* \"#utility.yul\":15254:15280   */\n      mload\n        /* \"#utility.yul\":15246:15252   */\n      dup3\n        /* \"#utility.yul\":15239:15281   */\n      sstore\n        /* \"#utility.yul\":15320:15321   */\n      0x01\n        /* \"#utility.yul\":15312:15318   */\n      dup3\n        /* \"#utility.yul\":15308:15322   */\n      add\n        /* \"#utility.yul\":15298:15322   */\n      swap2\n      pop\n        /* \"#utility.yul\":15367:15369   */\n      0x20\n        /* \"#utility.yul\":15356:15365   */\n      dup6\n        /* \"#utility.yul\":15352:15370   */\n      add\n        /* \"#utility.yul\":15339:15370   */\n      swap5\n      pop\n        /* \"#utility.yul\":15213:15217   */\n      0x20\n        /* \"#utility.yul\":15210:15211   */\n      dup2\n        /* \"#utility.yul\":15206:15218   */\n      add\n        /* \"#utility.yul\":15201:15218   */\n      swap1\n      pop\n        /* \"#utility.yul\":15176:15384   */\n      jump(tag_360)\n    tag_362:\n        /* \"#utility.yul\":15412:15418   */\n      dup7\n        /* \"#utility.yul\":15403:15410   */\n      dup4\n        /* \"#utility.yul\":15400:15419   */\n      lt\n        /* \"#utility.yul\":15397:15576   */\n      iszero\n      tag_363\n      jumpi\n        /* \"#utility.yul\":15470:15479   */\n      dup5\n        /* \"#utility.yul\":15465:15468   */\n      dup10\n        /* \"#utility.yul\":15461:15480   */\n      add\n        /* \"#utility.yul\":15455:15481   */\n      mload\n        /* \"#utility.yul\":15513:15561   */\n      tag_364\n        /* \"#utility.yul\":15555:15559   */\n      0x1f\n        /* \"#utility.yul\":15547:15553   */\n      dup10\n        /* \"#utility.yul\":15543:15560   */\n      and\n        /* \"#utility.yul\":15532:15541   */\n      dup3\n        /* \"#utility.yul\":15513:15561   */\n      tag_185\n      jump\t// in\n    tag_364:\n        /* \"#utility.yul\":15505:15511   */\n      dup4\n        /* \"#utility.yul\":15498:15562   */\n      sstore\n        /* \"#utility.yul\":15420:15576   */\n      pop\n        /* \"#utility.yul\":15397:15576   */\n    tag_363:\n        /* \"#utility.yul\":15622:15623   */\n      0x01\n        /* \"#utility.yul\":15618:15619   */\n      0x02\n        /* \"#utility.yul\":15610:15616   */\n      dup9\n        /* \"#utility.yul\":15606:15620   */\n      mul\n        /* \"#utility.yul\":15602:15624   */\n      add\n        /* \"#utility.yul\":15596:15600   */\n      dup9\n        /* \"#utility.yul\":15589:15625   */\n      sstore\n        /* \"#utility.yul\":15024:15635   */\n      pop\n      pop\n      pop\n        /* \"#utility.yul\":14987:15874   */\n    tag_355:\n      pop\n        /* \"#utility.yul\":14577:15880   */\n      pop\n      pop\n      pop\n        /* \"#utility.yul\":14485:15880   */\n      pop\n      pop\n      jump\t// out\n        /* \"#utility.yul\":15886:16066   */\n    tag_187:\n        /* \"#utility.yul\":15934:16011   */\n      0x4e487b7100000000000000000000000000000000000000000000000000000000\n        /* \"#utility.yul\":15931:15932   */\n      0x00\n        /* \"#utility.yul\":15924:16012   */\n      mstore\n        /* \"#utility.yul\":16031:16035   */\n      0x11\n        /* \"#utility.yul\":16028:16029   */\n      0x04\n        /* \"#utility.yul\":16021:16036   */\n      mstore\n        /* \"#utility.yul\":16055:16059   */\n      0x24\n        /* \"#utility.yul\":16052:16053   */\n      0x00\n        /* \"#utility.yul\":16045:16060   */\n      revert\n        /* \"#utility.yul\":16072:16239   */\n    tag_84:\n        /* \"#utility.yul\":16109:16112   */\n      0x00\n        /* \"#utility.yul\":16132:16154   */\n      tag_367\n        /* \"#utility.yul\":16148:16153   */\n      dup3\n        /* \"#utility.yul\":16132:16154   */\n      tag_150\n      jump\t// in\n    tag_367:\n        /* \"#utility.yul\":16123:16154   */\n      swap2\n      pop\n        /* \"#utility.yul\":16176:16180   */\n      0xff\n        /* \"#utility.yul\":16169:16174   */\n      dup3\n        /* \"#utility.yul\":16166:16181   */\n      sub\n        /* \"#utility.yul\":16163:16204   */\n      tag_368\n      jumpi\n        /* \"#utility.yul\":16184:16202   */\n      tag_369\n      tag_187\n      jump\t// in\n    tag_369:\n        /* \"#utility.yul\":16163:16204   */\n    tag_368:\n        /* \"#utility.yul\":16231:16232   */\n      0x01\n        /* \"#utility.yul\":16224:16229   */\n      dup3\n        /* \"#utility.yul\":16220:16233   */\n      add\n        /* \"#utility.yul\":16213:16233   */\n      swap1\n      pop\n        /* \"#utility.yul\":16072:16239   */\n      swap2\n      swap1\n      pop\n      jump\t// out\n        /* \"#utility.yul\":16245:16422   */\n    tag_188:\n        /* \"#utility.yul\":16385:16414   */\n      0x6f6e6c7920726567697374657220706c617965722063616e20646f0000000000\n        /* \"#utility.yul\":16381:16382   */\n      0x00\n        /* \"#utility.yul\":16373:16379   */\n      dup3\n        /* \"#utility.yul\":16369:16383   */\n      add\n        /* \"#utility.yul\":16362:16415   */\n      mstore\n        /* \"#utility.yul\":16245:16422   */\n      pop\n      jump\t// out\n        /* \"#utility.yul\":16428:16794   */\n    tag_189:\n        /* \"#utility.yul\":16570:16573   */\n      0x00\n        /* \"#utility.yul\":16591:16658   */\n      tag_372\n        /* \"#utility.yul\":16655:16657   */\n      0x1b\n        /* \"#utility.yul\":16650:16653   */\n      dup4\n        /* \"#utility.yul\":16591:16658   */\n      tag_146\n      jump\t// in\n    tag_372:\n        /* \"#utility.yul\":16584:16658   */\n      swap2\n      pop\n        /* \"#utility.yul\":16667:16760   */\n      tag_373\n        /* \"#utility.yul\":16756:16759   */\n      dup3\n        /* \"#utility.yul\":16667:16760   */\n      tag_188\n      jump\t// in\n    tag_373:\n        /* \"#utility.yul\":16785:16787   */\n      0x20\n        /* \"#utility.yul\":16780:16783   */\n      dup3\n        /* \"#utility.yul\":16776:16788   */\n      add\n        /* \"#utility.yul\":16769:16788   */\n      swap1\n      pop\n        /* \"#utility.yul\":16428:16794   */\n      swap2\n      swap1\n      pop\n      jump\t// out\n        /* \"#utility.yul\":16800:17219   */\n    tag_89:\n        /* \"#utility.yul\":16966:16970   */\n      0x00\n        /* \"#utility.yul\":17004:17006   */\n      0x20\n        /* \"#utility.yul\":16993:17002   */\n      dup3\n        /* \"#utility.yul\":16989:17007   */\n      add\n        /* \"#utility.yul\":16981:17007   */\n      swap1\n      pop\n        /* \"#utility.yul\":17053:17062   */\n      dup2\n        /* \"#utility.yul\":17047:17051   */\n      dup2\n        /* \"#utility.yul\":17043:17063   */\n      sub\n        /* \"#utility.yul\":17039:17040   */\n      0x00\n        /* \"#utility.yul\":17028:17037   */\n      dup4\n        /* \"#utility.yul\":17024:17041   */\n      add\n        /* \"#utility.yul\":17017:17064   */\n      mstore\n        /* \"#utility.yul\":17081:17212   */\n      tag_375\n        /* \"#utility.yul\":17207:17211   */\n      dup2\n        /* \"#utility.yul\":17081:17212   */\n      tag_189\n      jump\t// in\n    tag_375:\n        /* \"#utility.yul\":17073:17212   */\n      swap1\n      pop\n        /* \"#utility.yul\":16800:17219   */\n      swap2\n      swap1\n      pop\n      jump\t// out\n        /* \"#utility.yul\":17225:17388   */\n    tag_190:\n        /* \"#utility.yul\":17365:17380   */\n      0x67616d652066696e697368656400000000000000000000000000000000000000\n        /* \"#utility.yul\":17361:17362   */\n      0x00\n        /* \"#utility.yul\":17353:17359   */\n      dup3\n        /* \"#utility.yul\":17349:17363   */\n      add\n        /* \"#utility.yul\":17342:17381   */\n      mstore\n        /* \"#utility.yul\":17225:17388   */\n      pop\n      jump\t// out\n        /* \"#utility.yul\":17394:17760   */\n    tag_191:\n        /* \"#utility.yul\":17536:17539   */\n      0x00\n        /* \"#utility.yul\":17557:17624   */\n      tag_378\n        /* \"#utility.yul\":17621:17623   */\n      0x0d\n        /* \"#utility.yul\":17616:17619   */\n      dup4\n        /* \"#utility.yul\":17557:17624   */\n      tag_146\n      jump\t// in\n    tag_378:\n        /* \"#utility.yul\":17550:17624   */\n      swap2\n      pop\n        /* \"#utility.yul\":17633:17726   */\n      tag_379\n        /* \"#utility.yul\":17722:17725   */\n      dup3\n        /* \"#utility.yul\":17633:17726   */\n      tag_190\n      jump\t// in\n    tag_379:\n        /* \"#utility.yul\":17751:17753   */\n      0x20\n        /* \"#utility.yul\":17746:17749   */\n      dup3\n        /* \"#utility.yul\":17742:17754   */\n      add\n        /* \"#utility.yul\":17735:17754   */\n      swap1\n      pop\n        /* \"#utility.yul\":17394:17760   */\n      swap2\n      swap1\n      pop\n      jump\t// out\n        /* \"#utility.yul\":17766:18185   */\n    tag_92:\n        /* \"#utility.yul\":17932:17936   */\n      0x00\n        /* \"#utility.yul\":17970:17972   */\n      0x20\n        /* \"#utility.yul\":17959:17968   */\n      dup3\n        /* \"#utility.yul\":17955:17973   */\n      add\n        /* \"#utility.yul\":17947:17973   */\n      swap1\n      pop\n        /* \"#utility.yul\":18019:18028   */\n      dup2\n        /* \"#utility.yul\":18013:18017   */\n      dup2\n        /* \"#utility.yul\":18009:18029   */\n      sub\n        /* \"#utility.yul\":18005:18006   */\n      0x00\n        /* \"#utility.yul\":17994:18003   */\n      dup4\n        /* \"#utility.yul\":17990:18007   */\n      add\n        /* \"#utility.yul\":17983:18030   */\n      mstore\n        /* \"#utility.yul\":18047:18178   */\n      tag_381\n        /* \"#utility.yul\":18173:18177   */\n      dup2\n        /* \"#utility.yul\":18047:18178   */\n      tag_191\n      jump\t// in\n    tag_381:\n        /* \"#utility.yul\":18039:18178   */\n      swap1\n      pop\n        /* \"#utility.yul\":17766:18185   */\n      swap2\n      swap1\n      pop\n      jump\t// out\n        /* \"#utility.yul\":18191:18352   */\n    tag_192:\n        /* \"#utility.yul\":18331:18344   */\n      0x706c656173652077616974000000000000000000000000000000000000000000\n        /* \"#utility.yul\":18327:18328   */\n      0x00\n        /* \"#utility.yul\":18319:18325   */\n      dup3\n        /* \"#utility.yul\":18315:18329   */\n      add\n        /* \"#utility.yul\":18308:18345   */\n      mstore\n        /* \"#utility.yul\":18191:18352   */\n      pop\n      jump\t// out\n        /* \"#utility.yul\":18358:18724   */\n    tag_193:\n        /* \"#utility.yul\":18500:18503   */\n      0x00\n        /* \"#utility.yul\":18521:18588   */\n      tag_384\n        /* \"#utility.yul\":18585:18587   */\n      0x0b\n        /* \"#utility.yul\":18580:18583   */\n      dup4\n        /* \"#utility.yul\":18521:18588   */\n      tag_146\n      jump\t// in\n    tag_384:\n        /* \"#utility.yul\":18514:18588   */\n      swap2\n      pop\n        /* \"#utility.yul\":18597:18690   */\n      tag_385\n        /* \"#utility.yul\":18686:18689   */\n      dup3\n        /* \"#utility.yul\":18597:18690   */\n      tag_192\n      jump\t// in\n    tag_385:\n        /* \"#utility.yul\":18715:18717   */\n      0x20\n        /* \"#utility.yul\":18710:18713   */\n      dup3\n        /* \"#utility.yul\":18706:18718   */\n      add\n        /* \"#utility.yul\":18699:18718   */\n      swap1\n      pop\n        /* \"#utility.yul\":18358:18724   */\n      swap2\n      swap1\n      pop\n      jump\t// out\n        /* \"#utility.yul\":18730:19149   */\n    tag_106:\n        /* \"#utility.yul\":18896:18900   */\n      0x00\n        /* \"#utility.yul\":18934:18936   */\n      0x20\n        /* \"#utility.yul\":18923:18932   */\n      dup3\n        /* \"#utility.yul\":18919:18937   */\n      add\n        /* \"#utility.yul\":18911:18937   */\n      swap1\n      pop\n        /* \"#utility.yul\":18983:18992   */\n      dup2\n        /* \"#utility.yul\":18977:18981   */\n      dup2\n        /* \"#utility.yul\":18973:18993   */\n      sub\n        /* \"#utility.yul\":18969:18970   */\n      0x00\n        /* \"#utility.yul\":18958:18967   */\n      dup4\n        /* \"#utility.yul\":18954:18971   */\n      add\n        /* \"#utility.yul\":18947:18994   */\n      mstore\n        /* \"#utility.yul\":19011:19142   */\n      tag_387\n        /* \"#utility.yul\":19137:19141   */\n      dup2\n        /* \"#utility.yul\":19011:19142   */\n      tag_193\n      jump\t// in\n    tag_387:\n        /* \"#utility.yul\":19003:19142   */\n      swap1\n      pop\n        /* \"#utility.yul\":18730:19149   */\n      swap2\n      swap1\n      pop\n      jump\t// out\n        /* \"#utility.yul\":19155:19388   */\n    tag_108:\n        /* \"#utility.yul\":19194:19197   */\n      0x00\n        /* \"#utility.yul\":19217:19241   */\n      tag_389\n        /* \"#utility.yul\":19235:19240   */\n      dup3\n        /* \"#utility.yul\":19217:19241   */\n      tag_152\n      jump\t// in\n    tag_389:\n        /* \"#utility.yul\":19208:19241   */\n      swap2\n      pop\n        /* \"#utility.yul\":19263:19329   */\n      0xffffffffffffffffffffffffffffffffffffffffffffffffffffffffffffffff\n        /* \"#utility.yul\":19256:19261   */\n      dup3\n        /* \"#utility.yul\":19253:19330   */\n      sub\n        /* \"#utility.yul\":19250:19353   */\n      tag_390\n      jumpi\n        /* \"#utility.yul\":19333:19351   */\n      tag_391\n      tag_187\n      jump\t// in\n    tag_391:\n        /* \"#utility.yul\":19250:19353   */\n    tag_390:\n        /* \"#utility.yul\":19380:19381   */\n      0x01\n        /* \"#utility.yul\":19373:19378   */\n      dup3\n        /* \"#utility.yul\":19369:19382   */\n      add\n        /* \"#utility.yul\":19362:19382   */\n      swap1\n      pop\n        /* \"#utility.yul\":19155:19388   */\n      swap2\n      swap1\n      pop\n      jump\t// out\n        /* \"#utility.yul\":19394:19710   */\n    tag_122:\n        /* \"#utility.yul\":19507:19511   */\n      0x00\n        /* \"#utility.yul\":19545:19547   */\n      0x40\n        /* \"#utility.yul\":19534:19543   */\n      dup3\n        /* \"#utility.yul\":19530:19548   */\n      add\n        /* \"#utility.yul\":19522:19548   */\n      swap1\n      pop\n        /* \"#utility.yul\":19558:19625   */\n      tag_393\n        /* \"#utility.yul\":19622:19623   */\n      0x00\n        /* \"#utility.yul\":19611:19620   */\n      dup4\n        /* \"#utility.yul\":19607:19624   */\n      add\n        /* \"#utility.yul\":19598:19604   */\n      dup6\n        /* \"#utility.yul\":19558:19625   */\n      tag_151\n      jump\t// in\n    tag_393:\n        /* \"#utility.yul\":19635:19703   */\n      tag_394\n        /* \"#utility.yul\":19699:19701   */\n      0x20\n        /* \"#utility.yul\":19688:19697   */\n      dup4\n        /* \"#utility.yul\":19684:19702   */\n      add\n        /* \"#utility.yul\":19675:19681   */\n      dup5\n        /* \"#utility.yul\":19635:19703   */\n      tag_151\n      jump\t// in\n    tag_394:\n        /* \"#utility.yul\":19394:19710   */\n      swap4\n      swap3\n      pop\n      pop\n      pop\n      jump\t// out\n        /* \"#utility.yul\":19716:19907   */\n    tag_130:\n        /* \"#utility.yul\":19754:19758   */\n      0x00\n        /* \"#utility.yul\":19774:19792   */\n      tag_396\n        /* \"#utility.yul\":19790:19791   */\n      dup3\n        /* \"#utility.yul\":19774:19792   */\n      tag_150\n      jump\t// in\n    tag_396:\n        /* \"#utility.yul\":19769:19792   */\n      swap2\n      pop\n        /* \"#utility.yul\":19806:19824   */\n      tag_397\n        /* \"#utility.yul\":19822:19823   */\n      dup4\n        /* \"#utility.yul\":19806:19824   */\n      tag_150\n      jump\t// in\n    tag_397:\n        /* \"#utility.yul\":19801:19824   */\n      swap3\n      pop\n        /* \"#utility.yul\":19848:19849   */\n      dup3\n        /* \"#utility.yul\":19845:19846   */\n      dup3\n        /* \"#utility.yul\":19841:19850   */\n      sub\n        /* \"#utility.yul\":19833:19850   */\n      swap1\n      pop\n        /* \"#utility.yul\":19872:19876   */\n      0xff\n        /* \"#utility.yul\":19866:19870   */\n      dup2\n        /* \"#utility.yul\":19863:19877   */\n      gt\n        /* \"#utility.yul\":19860:19900   */\n      iszero\n      tag_398\n      jumpi\n        /* \"#utility.yul\":19880:19898   */\n      tag_399\n      tag_187\n      jump\t// in\n    tag_399:\n        /* \"#utility.yul\":19860:19900   */\n    tag_398:\n        /* \"#utility.yul\":19716:19907   */\n      swap3\n      swap2\n      pop\n      pop\n      jump\t// out\n\n    auxdata: 0xa26469706673582212207aaebf61c01bbc338556451a9808281695bd34429494da9895129a1e9b96260664736f6c634300081a0033\n}\n",
				"bytecode": {
					"linkReferences": {},
					"object": "6080604052348015600e575f80fd5b506113de8061001c5f395ff3fe608060405234801561000f575f80fd5b506004361061004a575f3560e01c806309c95e101461004e578063dfbf53ae1461007e578063f2c298be1461009f578063f94e349d146100bb575b5f80fd5b610068600480360381019061006391906109b7565b6100d7565b60405161007591906109fc565b60405180910390f35b6100866101c6565b6040516100969493929190610ab8565b60405180910390f35b6100b960048036038101906100b49190610c2e565b61037d565b005b6100d560048036038101906100d09190610c9f565b61058d565b005b5f60015f600281106100ec576100eb610cca565b5b600402015f015f9054906101000a900473ffffffffffffffffffffffffffffffffffffffff1673ffffffffffffffffffffffffffffffffffffffff168273ffffffffffffffffffffffffffffffffffffffff1614806101af57506001806002811061015a57610159610cca565b5b600402015f015f9054906101000a900473ffffffffffffffffffffffffffffffffffffffff1673ffffffffffffffffffffffffffffffffffffffff168273ffffffffffffffffffffffffffffffffffffffff16145b156101bd57600190506101c1565b5f90505b919050565b60605f805f60095f9054906101000a900460ff166102045760ff80620a2c2a60405180602001604052805f8152509291909350935093509350610377565b5f80600960019054906101000a900460ff1660ff160361022357600190505b6001600960019054906101000a900460ff1660ff166002811061024957610248610cca565b5b600402016001016001600960019054906101000a900460ff1660ff166002811061027657610275610cca565b5b600402016002015f9054906101000a900460ff1660018360ff16600281106102a1576102a0610cca565b5b600402016002015f9054906101000a900460ff166001600960019054906101000a900460ff1660ff16600281106102db576102da610cca565b5b60040201600301548380546102ef90610d24565b80601f016020809104026020016040519081016040528092919081815260200182805461031b90610d24565b80156103665780601f1061033d57610100808354040283529160200191610366565b820191905f5260205f20905b81548152906001019060200180831161034957829003601f168201915b505050505093509450945094509450505b90919293565b60025f8054906101000a900460ff1660ff1611156103d0576040517f08c379a00000000000000000000000000000000000000000000000000000000081526004016103c790610d9e565b60405180910390fd5b5f5b60028110156104b457816040516020016103ec9190610df6565b604051602081830303815290604052805190602001206001826002811061041657610415610cca565b5b6004020160010160405160200161042d9190610e9e565b604051602081830303815290604052805190602001201415826040516020016104569190610eda565b604051602081830303815290604052906104a6576040517f08c379a000000000000000000000000000000000000000000000000000000000815260040161049d9190610eff565b60405180910390fd5b5080806001019150506103d2565b503360015f8054906101000a900460ff1660ff16600281106104d9576104d8610cca565b5b600402015f015f6101000a81548173ffffffffffffffffffffffffffffffffffffffff021916908373ffffffffffffffffffffffffffffffffffffffff1602179055508060015f8054906101000a900460ff1660ff16600281106105405761053f610cca565b5b60040201600101908161055391906110aa565b505f8081819054906101000a900460ff1680929190610571906111a6565b91906101000a81548160ff021916908360ff1602179055505050565b610596336100d7565b6105d5576040517f08c379a00000000000000000000000000000000000000000000000000000000081526004016105cc90611218565b60405180910390fd5b60095f9054906101000a900460ff1615610624576040517f08c379a000000000000000000000000000000000000000000000000000000000815260040161061b90611280565b60405180910390fd5b5f803373ffffffffffffffffffffffffffffffffffffffff1660015f6002811061065157610650610cca565b5b600402015f015f9054906101000a900473ffffffffffffffffffffffffffffffffffffffff1673ffffffffffffffffffffffffffffffffffffffff160361069e575f9150600190506106a6565b600191505f90505b5f60018360ff16600281106106be576106bd610cca565b5b60040201905060018260ff16600281106106db576106da610cca565b5b600402016003015481600301541115610729576040517f08c379a0000000000000000000000000000000000000000000000000000000008152600401610720906112e8565b60405180910390fd5b83816002015f6101000a81548160ff021916908360ff160217905550806003015f81548092919061075990611306565b919050555060018260ff166002811061077557610774610cca565b5b60040201600301548160030154036108a7575f6107cc826002015f9054906101000a900460ff1660018560ff16600281106107b3576107b2610cca565b5b600402016002015f9054906101000a900460ff166108ad565b905060018160ff160361081357600160095f6101000a81548160ff02191690831515021790555083600960016101000a81548160ff021916908360ff160217905550610855565b60028160ff160361085457600160095f6101000a81548160ff02191690831515021790555082600960016101000a81548160ff021916908360ff1602179055505b5b3373ffffffffffffffffffffffffffffffffffffffff167fbc8908f0f5274bbd93bd1009cbda13f56be8085c477035173cbf3550b96596a6868360405161089d92919061134d565b60405180910390a2505b50505050565b5f60028360ff1611156108be575f80fd5b60028260ff1611156108ce575f80fd5b8160ff168360ff16036108e3575f9050610946565b8160ff168360ff1611156109045781836108fd9190611374565b9050610946565b600283836109129190611374565b60ff16036109235760019050610946565b600183836109319190611374565b60ff16036109425760029050610946565b5f90505b92915050565b5f604051905090565b5f80fd5b5f80fd5b5f73ffffffffffffffffffffffffffffffffffffffff82169050919050565b5f6109868261095d565b9050919050565b6109968161097c565b81146109a0575f80fd5b50565b5f813590506109b18161098d565b92915050565b5f602082840312156109cc576109cb610955565b5b5f6109d9848285016109a3565b91505092915050565b5f8115159050919050565b6109f6816109e2565b82525050565b5f602082019050610a0f5f8301846109ed565b92915050565b5f81519050919050565b5f82825260208201905092915050565b8281835e5f83830152505050565b5f601f19601f8301169050919050565b5f610a5782610a15565b610a618185610a1f565b9350610a71818560208601610a2f565b610a7a81610a3d565b840191505092915050565b5f60ff82169050919050565b610a9a81610a85565b82525050565b5f819050919050565b610ab281610aa0565b82525050565b5f6080820190508181035f830152610ad08187610a4d565b9050610adf6020830186610a91565b610aec6040830185610a91565b610af96060830184610aa9565b95945050505050565b5f80fd5b5f80fd5b7f4e487b71000000000000000000000000000000000000000000000000000000005f52604160045260245ffd5b610b4082610a3d565b810181811067ffffffffffffffff82111715610b5f57610b5e610b0a565b5b80604052505050565b5f610b7161094c565b9050610b7d8282610b37565b919050565b5f67ffffffffffffffff821115610b9c57610b9b610b0a565b5b610ba582610a3d565b9050602081019050919050565b828183375f83830152505050565b5f610bd2610bcd84610b82565b610b68565b905082815260208101848484011115610bee57610bed610b06565b5b610bf9848285610bb2565b509392505050565b5f82601f830112610c1557610c14610b02565b5b8135610c25848260208601610bc0565b91505092915050565b5f60208284031215610c4357610c42610955565b5b5f82013567ffffffffffffffff811115610c6057610c5f610959565b5b610c6c84828501610c01565b91505092915050565b610c7e81610a85565b8114610c88575f80fd5b50565b5f81359050610c9981610c75565b92915050565b5f60208284031215610cb457610cb3610955565b5b5f610cc184828501610c8b565b91505092915050565b7f4e487b71000000000000000000000000000000000000000000000000000000005f52603260045260245ffd5b7f4e487b71000000000000000000000000000000000000000000000000000000005f52602260045260245ffd5b5f6002820490506001821680610d3b57607f821691505b602082108103610d4e57610d4d610cf7565b5b50919050565b7f74776f20706c61796572206f6e6c7900000000000000000000000000000000005f82015250565b5f610d88600f83610a1f565b9150610d9382610d54565b602082019050919050565b5f6020820190508181035f830152610db581610d7c565b9050919050565b5f81905092915050565b5f610dd082610a15565b610dda8185610dbc565b9350610dea818560208601610a2f565b80840191505092915050565b5f610e018284610dc6565b915081905092915050565b5f819050815f5260205f209050919050565b5f8154610e2a81610d24565b610e348186610dbc565b9450600182165f8114610e4e5760018114610e6357610e95565b60ff1983168652811515820286019350610e95565b610e6c85610e0c565b5f5b83811015610e8d57815481890152600182019150602081019050610e6e565b838801955050505b50505092915050565b5f610ea98284610e1e565b915081905092915050565b7f20706c6179657220616c72656164792072656769737465720000000000000000815250565b5f610ee58284610dc6565b9150610ef082610eb4565b60188201915081905092915050565b5f6020820190508181035f830152610f178184610a4d565b905092915050565b5f6020601f8301049050919050565b5f82821b905092915050565b5f60088302610f697fffffffffffffffffffffffffffffffffffffffffffffffffffffffffffffffff82610f2e565b610f738683610f2e565b95508019841693508086168417925050509392505050565b5f819050919050565b5f610fae610fa9610fa484610aa0565b610f8b565b610aa0565b9050919050565b5f819050919050565b610fc783610f94565b610fdb610fd382610fb5565b848454610f3a565b825550505050565b5f90565b610fef610fe3565b610ffa818484610fbe565b505050565b5b8181101561101d576110125f82610fe7565b600181019050611000565b5050565b601f8211156110625761103381610e0c565b61103c84610f1f565b8101602085101561104b578190505b61105f61105785610f1f565b830182610fff565b50505b505050565b5f82821c905092915050565b5f6110825f1984600802611067565b1980831691505092915050565b5f61109a8383611073565b9150826002028217905092915050565b6110b382610a15565b67ffffffffffffffff8111156110cc576110cb610b0a565b5b6110d68254610d24565b6110e1828285611021565b5f60209050601f831160018114611112575f8415611100578287015190505b61110a858261108f565b865550611171565b601f19841661112086610e0c565b5f5b8281101561114757848901518255600182019150602085019450602081019050611122565b868310156111645784890151611160601f891682611073565b8355505b6001600288020188555050505b505050505050565b7f4e487b71000000000000000000000000000000000000000000000000000000005f52601160045260245ffd5b5f6111b082610a85565b915060ff82036111c3576111c2611179565b5b600182019050919050565b7f6f6e6c7920726567697374657220706c617965722063616e20646f00000000005f82015250565b5f611202601b83610a1f565b915061120d826111ce565b602082019050919050565b5f6020820190508181035f83015261122f816111f6565b9050919050565b7f67616d652066696e6973686564000000000000000000000000000000000000005f82015250565b5f61126a600d83610a1f565b915061127582611236565b602082019050919050565b5f6020820190508181035f8301526112978161125e565b9050919050565b7f706c6561736520776169740000000000000000000000000000000000000000005f82015250565b5f6112d2600b83610a1f565b91506112dd8261129e565b602082019050919050565b5f6020820190508181035f8301526112ff816112c6565b9050919050565b5f61131082610aa0565b91507fffffffffffffffffffffffffffffffffffffffffffffffffffffffffffffffff820361134257611341611179565b5b600182019050919050565b5f6040820190506113605f830185610a91565b61136d6020830184610a91565b9392505050565b5f61137e82610a85565b915061138983610a85565b9250828203905060ff8111156113a2576113a1611179565b5b9291505056fea26469706673582212207aaebf61c01bbc338556451a9808281695bd34429494da9895129a1e9b96260664736f6c634300081a0033",
					"opcodes": "PUSH1 0x80 PUSH1 0x40 MSTORE CALLVALUE DUP1 ISZERO PUSH1 0xE JUMPI PUSH0 DUP1 REVERT JUMPDEST POP PUSH2 0x13DE DUP1 PUSH2 0x1C PUSH0 CODECOPY PUSH0 RETURN INVALID PUSH1 0x80 PUSH1 0x40 MSTORE CALLVALUE DUP1 ISZERO PUSH2 0xF JUMPI PUSH0 DUP1 REVERT JUMPDEST POP PUSH1 0x4 CALLDATASIZE LT PUSH2 0x4A JUMPI PUSH0 CALLDATALOAD PUSH1 0xE0 SHR DUP1 PUSH4 0x9C95E10 EQ PUSH2 0x4E JUMPI DUP1 PUSH4 0xDFBF53AE EQ PUSH2 0x7E JUMPI DUP1 PUSH4 0xF2C298BE EQ PUSH2 0x9F JUMPI DUP1 PUSH4 0xF94E349D EQ PUSH2 0xBB JUMPI JUMPDEST PUSH0 DUP1 REVERT JUMPDEST PUSH2 0x68 PUSH1 0x4 DUP1 CALLDATASIZE SUB DUP2 ADD SWAP1 PUSH2 0x63 SWAP2 SWAP1 PUSH2 0x9B7 JUMP JUMPDEST PUSH2 0xD7 JUMP JUMPDEST PUSH1 0x40 MLOAD PUSH2 0x75 SWAP2 SWAP1 PUSH2 0x9FC JUMP JUMPDEST PUSH1 0x40 MLOAD DUP1 SWAP2 SUB SWAP1 RETURN JUMPDEST PUSH2 0x86 PUSH2 0x1C6 JUMP JUMPDEST PUSH1 0x40 MLOAD PUSH2 0x96 SWAP5 SWAP4 SWAP3 SWAP2 SWAP1 PUSH2 0xAB8 JUMP JUMPDEST PUSH1 0x40 MLOAD DUP1 SWAP2 SUB SWAP1 RETURN JUMPDEST PUSH2 0xB9 PUSH1 0x4 DUP1 CALLDATASIZE SUB DUP2 ADD SWAP1 PUSH2 0xB4 SWAP2 SWAP1 PUSH2 0xC2E JUMP JUMPDEST PUSH2 0x37D JUMP JUMPDEST STOP JUMPDEST PUSH2 0xD5 PUSH1 0x4 DUP1 CALLDATASIZE SUB DUP2 ADD SWAP1 PUSH2 0xD0 SWAP2 SWAP1 PUSH2 0xC9F JUMP JUMPDEST PUSH2 0x58D JUMP JUMPDEST STOP JUMPDEST PUSH0 PUSH1 0x1 PUSH0 PUSH1 0x2 DUP2 LT PUSH2 0xEC JUMPI PUSH2 0xEB PUSH2 0xCCA JUMP JUMPDEST JUMPDEST PUSH1 0x4 MUL ADD PUSH0 ADD PUSH0 SWAP1 SLOAD SWAP1 PUSH2 0x100 EXP SWAP1 DIV PUSH20 0xFFFFFFFFFFFFFFFFFFFFFFFFFFFFFFFFFFFFFFFF AND PUSH20 0xFFFFFFFFFFFFFFFFFFFFFFFFFFFFFFFFFFFFFFFF AND DUP3 PUSH20 0xFFFFFFFFFFFFFFFFFFFFFFFFFFFFFFFFFFFFFFFF AND EQ DUP1 PUSH2 0x1AF JUMPI POP PUSH1 0x1 DUP1 PUSH1 0x2 DUP2 LT PUSH2 0x15A JUMPI PUSH2 0x159 PUSH2 0xCCA JUMP JUMPDEST JUMPDEST PUSH1 0x4 MUL ADD PUSH0 ADD PUSH0 SWAP1 SLOAD SWAP1 PUSH2 0x100 EXP SWAP1 DIV PUSH20 0xFFFFFFFFFFFFFFFFFFFFFFFFFFFFFFFFFFFFFFFF AND PUSH20 0xFFFFFFFFFFFFFFFFFFFFFFFFFFFFFFFFFFFFFFFF AND DUP3 PUSH20 0xFFFFFFFFFFFFFFFFFFFFFFFFFFFFFFFFFFFFFFFF AND EQ JUMPDEST ISZERO PUSH2 0x1BD JUMPI PUSH1 0x1 SWAP1 POP PUSH2 0x1C1 JUMP JUMPDEST PUSH0 SWAP1 POP JUMPDEST SWAP2 SWAP1 POP JUMP JUMPDEST PUSH1 0x60 PUSH0 DUP1 PUSH0 PUSH1 0x9 PUSH0 SWAP1 SLOAD SWAP1 PUSH2 0x100 EXP SWAP1 DIV PUSH1 0xFF AND PUSH2 0x204 JUMPI PUSH1 0xFF DUP1 PUSH3 0xA2C2A PUSH1 0x40 MLOAD DUP1 PUSH1 0x20 ADD PUSH1 0x40 MSTORE DUP1 PUSH0 DUP2 MSTORE POP SWAP3 SWAP2 SWAP1 SWAP4 POP SWAP4 POP SWAP4 POP SWAP4 POP PUSH2 0x377 JUMP JUMPDEST PUSH0 DUP1 PUSH1 0x9 PUSH1 0x1 SWAP1 SLOAD SWAP1 PUSH2 0x100 EXP SWAP1 DIV PUSH1 0xFF AND PUSH1 0xFF AND SUB PUSH2 0x223 JUMPI PUSH1 0x1 SWAP1 POP JUMPDEST PUSH1 0x1 PUSH1 0x9 PUSH1 0x1 SWAP1 SLOAD SWAP1 PUSH2 0x100 EXP SWAP1 DIV PUSH1 0xFF AND PUSH1 0xFF AND PUSH1 0x2 DUP2 LT PUSH2 0x249 JUMPI PUSH2 0x248 PUSH2 0xCCA JUMP JUMPDEST JUMPDEST PUSH1 0x4 MUL ADD PUSH1 0x1 ADD PUSH1 0x1 PUSH1 0x9 PUSH1 0x1 SWAP1 SLOAD SWAP1 PUSH2 0x100 EXP SWAP1 DIV PUSH1 0xFF AND PUSH1 0xFF AND PUSH1 0x2 DUP2 LT PUSH2 0x276 JUMPI PUSH2 0x275 PUSH2 0xCCA JUMP JUMPDEST JUMPDEST PUSH1 0x4 MUL ADD PUSH1 0x2 ADD PUSH0 SWAP1 SLOAD SWAP1 PUSH2 0x100 EXP SWAP1 DIV PUSH1 0xFF AND PUSH1 0x1 DUP4 PUSH1 0xFF AND PUSH1 0x2 DUP2 LT PUSH2 0x2A1 JUMPI PUSH2 0x2A0 PUSH2 0xCCA JUMP JUMPDEST JUMPDEST PUSH1 0x4 MUL ADD PUSH1 0x2 ADD PUSH0 SWAP1 SLOAD SWAP1 PUSH2 0x100 EXP SWAP1 DIV PUSH1 0xFF AND PUSH1 0x1 PUSH1 0x9 PUSH1 0x1 SWAP1 SLOAD SWAP1 PUSH2 0x100 EXP SWAP1 DIV PUSH1 0xFF AND PUSH1 0xFF AND PUSH1 0x2 DUP2 LT PUSH2 0x2DB JUMPI PUSH2 0x2DA PUSH2 0xCCA JUMP JUMPDEST JUMPDEST PUSH1 0x4 MUL ADD PUSH1 0x3 ADD SLOAD DUP4 DUP1 SLOAD PUSH2 0x2EF SWAP1 PUSH2 0xD24 JUMP JUMPDEST DUP1 PUSH1 0x1F ADD PUSH1 0x20 DUP1 SWAP2 DIV MUL PUSH1 0x20 ADD PUSH1 0x40 MLOAD SWAP1 DUP2 ADD PUSH1 0x40 MSTORE DUP1 SWAP3 SWAP2 SWAP1 DUP2 DUP2 MSTORE PUSH1 0x20 ADD DUP3 DUP1 SLOAD PUSH2 0x31B SWAP1 PUSH2 0xD24 JUMP JUMPDEST DUP1 ISZERO PUSH2 0x366 JUMPI DUP1 PUSH1 0x1F LT PUSH2 0x33D JUMPI PUSH2 0x100 DUP1 DUP4 SLOAD DIV MUL DUP4 MSTORE SWAP2 PUSH1 0x20 ADD SWAP2 PUSH2 0x366 JUMP JUMPDEST DUP3 ADD SWAP2 SWAP1 PUSH0 MSTORE PUSH1 0x20 PUSH0 KECCAK256 SWAP1 JUMPDEST DUP2 SLOAD DUP2 MSTORE SWAP1 PUSH1 0x1 ADD SWAP1 PUSH1 0x20 ADD DUP1 DUP4 GT PUSH2 0x349 JUMPI DUP3 SWAP1 SUB PUSH1 0x1F AND DUP3 ADD SWAP2 JUMPDEST POP POP POP POP POP SWAP4 POP SWAP5 POP SWAP5 POP SWAP5 POP SWAP5 POP POP JUMPDEST SWAP1 SWAP2 SWAP3 SWAP4 JUMP JUMPDEST PUSH1 0x2 PUSH0 DUP1 SLOAD SWAP1 PUSH2 0x100 EXP SWAP1 DIV PUSH1 0xFF AND PUSH1 0xFF AND GT ISZERO PUSH2 0x3D0 JUMPI PUSH1 0x40 MLOAD PUSH32 0x8C379A000000000000000000000000000000000000000000000000000000000 DUP2 MSTORE PUSH1 0x4 ADD PUSH2 0x3C7 SWAP1 PUSH2 0xD9E JUMP JUMPDEST PUSH1 0x40 MLOAD DUP1 SWAP2 SUB SWAP1 REVERT JUMPDEST PUSH0 JUMPDEST PUSH1 0x2 DUP2 LT ISZERO PUSH2 0x4B4 JUMPI DUP2 PUSH1 0x40 MLOAD PUSH1 0x20 ADD PUSH2 0x3EC SWAP2 SWAP1 PUSH2 0xDF6 JUMP JUMPDEST PUSH1 0x40 MLOAD PUSH1 0x20 DUP2 DUP4 SUB SUB DUP2 MSTORE SWAP1 PUSH1 0x40 MSTORE DUP1 MLOAD SWAP1 PUSH1 0x20 ADD KECCAK256 PUSH1 0x1 DUP3 PUSH1 0x2 DUP2 LT PUSH2 0x416 JUMPI PUSH2 0x415 PUSH2 0xCCA JUMP JUMPDEST JUMPDEST PUSH1 0x4 MUL ADD PUSH1 0x1 ADD PUSH1 0x40 MLOAD PUSH1 0x20 ADD PUSH2 0x42D SWAP2 SWAP1 PUSH2 0xE9E JUMP JUMPDEST PUSH1 0x40 MLOAD PUSH1 0x20 DUP2 DUP4 SUB SUB DUP2 MSTORE SWAP1 PUSH1 0x40 MSTORE DUP1 MLOAD SWAP1 PUSH1 0x20 ADD KECCAK256 EQ ISZERO DUP3 PUSH1 0x40 MLOAD PUSH1 0x20 ADD PUSH2 0x456 SWAP2 SWAP1 PUSH2 0xEDA JUMP JUMPDEST PUSH1 0x40 MLOAD PUSH1 0x20 DUP2 DUP4 SUB SUB DUP2 MSTORE SWAP1 PUSH1 0x40 MSTORE SWAP1 PUSH2 0x4A6 JUMPI PUSH1 0x40 MLOAD PUSH32 0x8C379A000000000000000000000000000000000000000000000000000000000 DUP2 MSTORE PUSH1 0x4 ADD PUSH2 0x49D SWAP2 SWAP1 PUSH2 0xEFF JUMP JUMPDEST PUSH1 0x40 MLOAD DUP1 SWAP2 SUB SWAP1 REVERT JUMPDEST POP DUP1 DUP1 PUSH1 0x1 ADD SWAP2 POP POP PUSH2 0x3D2 JUMP JUMPDEST POP CALLER PUSH1 0x1 PUSH0 DUP1 SLOAD SWAP1 PUSH2 0x100 EXP SWAP1 DIV PUSH1 0xFF AND PUSH1 0xFF AND PUSH1 0x2 DUP2 LT PUSH2 0x4D9 JUMPI PUSH2 0x4D8 PUSH2 0xCCA JUMP JUMPDEST JUMPDEST PUSH1 0x4 MUL ADD PUSH0 ADD PUSH0 PUSH2 0x100 EXP DUP2 SLOAD DUP2 PUSH20 0xFFFFFFFFFFFFFFFFFFFFFFFFFFFFFFFFFFFFFFFF MUL NOT AND SWAP1 DUP4 PUSH20 0xFFFFFFFFFFFFFFFFFFFFFFFFFFFFFFFFFFFFFFFF AND MUL OR SWAP1 SSTORE POP DUP1 PUSH1 0x1 PUSH0 DUP1 SLOAD SWAP1 PUSH2 0x100 EXP SWAP1 DIV PUSH1 0xFF AND PUSH1 0xFF AND PUSH1 0x2 DUP2 LT PUSH2 0x540 JUMPI PUSH2 0x53F PUSH2 0xCCA JUMP JUMPDEST JUMPDEST PUSH1 0x4 MUL ADD PUSH1 0x1 ADD SWAP1 DUP2 PUSH2 0x553 SWAP2 SWAP1 PUSH2 0x10AA JUMP JUMPDEST POP PUSH0 DUP1 DUP2 DUP2 SWAP1 SLOAD SWAP1 PUSH2 0x100 EXP SWAP1 DIV PUSH1 0xFF AND DUP1 SWAP3 SWAP2 SWAP1 PUSH2 0x571 SWAP1 PUSH2 0x11A6 JUMP JUMPDEST SWAP2 SWAP1 PUSH2 0x100 EXP DUP2 SLOAD DUP2 PUSH1 0xFF MUL NOT AND SWAP1 DUP4 PUSH1 0xFF AND MUL OR SWAP1 SSTORE POP POP POP JUMP JUMPDEST PUSH2 0x596 CALLER PUSH2 0xD7 JUMP JUMPDEST PUSH2 0x5D5 JUMPI PUSH1 0x40 MLOAD PUSH32 0x8C379A000000000000000000000000000000000000000000000000000000000 DUP2 MSTORE PUSH1 0x4 ADD PUSH2 0x5CC SWAP1 PUSH2 0x1218 JUMP JUMPDEST PUSH1 0x40 MLOAD DUP1 SWAP2 SUB SWAP1 REVERT JUMPDEST PUSH1 0x9 PUSH0 SWAP1 SLOAD SWAP1 PUSH2 0x100 EXP SWAP1 DIV PUSH1 0xFF AND ISZERO PUSH2 0x624 JUMPI PUSH1 0x40 MLOAD PUSH32 0x8C379A000000000000000000000000000000000000000000000000000000000 DUP2 MSTORE PUSH1 0x4 ADD PUSH2 0x61B SWAP1 PUSH2 0x1280 JUMP JUMPDEST PUSH1 0x40 MLOAD DUP1 SWAP2 SUB SWAP1 REVERT JUMPDEST PUSH0 DUP1 CALLER PUSH20 0xFFFFFFFFFFFFFFFFFFFFFFFFFFFFFFFFFFFFFFFF AND PUSH1 0x1 PUSH0 PUSH1 0x2 DUP2 LT PUSH2 0x651 JUMPI PUSH2 0x650 PUSH2 0xCCA JUMP JUMPDEST JUMPDEST PUSH1 0x4 MUL ADD PUSH0 ADD PUSH0 SWAP1 SLOAD SWAP1 PUSH2 0x100 EXP SWAP1 DIV PUSH20 0xFFFFFFFFFFFFFFFFFFFFFFFFFFFFFFFFFFFFFFFF AND PUSH20 0xFFFFFFFFFFFFFFFFFFFFFFFFFFFFFFFFFFFFFFFF AND SUB PUSH2 0x69E JUMPI PUSH0 SWAP2 POP PUSH1 0x1 SWAP1 POP PUSH2 0x6A6 JUMP JUMPDEST PUSH1 0x1 SWAP2 POP PUSH0 SWAP1 POP JUMPDEST PUSH0 PUSH1 0x1 DUP4 PUSH1 0xFF AND PUSH1 0x2 DUP2 LT PUSH2 0x6BE JUMPI PUSH2 0x6BD PUSH2 0xCCA JUMP JUMPDEST JUMPDEST PUSH1 0x4 MUL ADD SWAP1 POP PUSH1 0x1 DUP3 PUSH1 0xFF AND PUSH1 0x2 DUP2 LT PUSH2 0x6DB JUMPI PUSH2 0x6DA PUSH2 0xCCA JUMP JUMPDEST JUMPDEST PUSH1 0x4 MUL ADD PUSH1 0x3 ADD SLOAD DUP2 PUSH1 0x3 ADD SLOAD GT ISZERO PUSH2 0x729 JUMPI PUSH1 0x40 MLOAD PUSH32 0x8C379A000000000000000000000000000000000000000000000000000000000 DUP2 MSTORE PUSH1 0x4 ADD PUSH2 0x720 SWAP1 PUSH2 0x12E8 JUMP JUMPDEST PUSH1 0x40 MLOAD DUP1 SWAP2 SUB SWAP1 REVERT JUMPDEST DUP4 DUP2 PUSH1 0x2 ADD PUSH0 PUSH2 0x100 EXP DUP2 SLOAD DUP2 PUSH1 0xFF MUL NOT AND SWAP1 DUP4 PUSH1 0xFF AND MUL OR SWAP1 SSTORE POP DUP1 PUSH1 0x3 ADD PUSH0 DUP2 SLOAD DUP1 SWAP3 SWAP2 SWAP1 PUSH2 0x759 SWAP1 PUSH2 0x1306 JUMP JUMPDEST SWAP2 SWAP1 POP SSTORE POP PUSH1 0x1 DUP3 PUSH1 0xFF AND PUSH1 0x2 DUP2 LT PUSH2 0x775 JUMPI PUSH2 0x774 PUSH2 0xCCA JUMP JUMPDEST JUMPDEST PUSH1 0x4 MUL ADD PUSH1 0x3 ADD SLOAD DUP2 PUSH1 0x3 ADD SLOAD SUB PUSH2 0x8A7 JUMPI PUSH0 PUSH2 0x7CC DUP3 PUSH1 0x2 ADD PUSH0 SWAP1 SLOAD SWAP1 PUSH2 0x100 EXP SWAP1 DIV PUSH1 0xFF AND PUSH1 0x1 DUP6 PUSH1 0xFF AND PUSH1 0x2 DUP2 LT PUSH2 0x7B3 JUMPI PUSH2 0x7B2 PUSH2 0xCCA JUMP JUMPDEST JUMPDEST PUSH1 0x4 MUL ADD PUSH1 0x2 ADD PUSH0 SWAP1 SLOAD SWAP1 PUSH2 0x100 EXP SWAP1 DIV PUSH1 0xFF AND PUSH2 0x8AD JUMP JUMPDEST SWAP1 POP PUSH1 0x1 DUP2 PUSH1 0xFF AND SUB PUSH2 0x813 JUMPI PUSH1 0x1 PUSH1 0x9 PUSH0 PUSH2 0x100 EXP DUP2 SLOAD DUP2 PUSH1 0xFF MUL NOT AND SWAP1 DUP4 ISZERO ISZERO MUL OR SWAP1 SSTORE POP DUP4 PUSH1 0x9 PUSH1 0x1 PUSH2 0x100 EXP DUP2 SLOAD DUP2 PUSH1 0xFF MUL NOT AND SWAP1 DUP4 PUSH1 0xFF AND MUL OR SWAP1 SSTORE POP PUSH2 0x855 JUMP JUMPDEST PUSH1 0x2 DUP2 PUSH1 0xFF AND SUB PUSH2 0x854 JUMPI PUSH1 0x1 PUSH1 0x9 PUSH0 PUSH2 0x100 EXP DUP2 SLOAD DUP2 PUSH1 0xFF MUL NOT AND SWAP1 DUP4 ISZERO ISZERO MUL OR SWAP1 SSTORE POP DUP3 PUSH1 0x9 PUSH1 0x1 PUSH2 0x100 EXP DUP2 SLOAD DUP2 PUSH1 0xFF MUL NOT AND SWAP1 DUP4 PUSH1 0xFF AND MUL OR SWAP1 SSTORE POP JUMPDEST JUMPDEST CALLER PUSH20 0xFFFFFFFFFFFFFFFFFFFFFFFFFFFFFFFFFFFFFFFF AND PUSH32 0xBC8908F0F5274BBD93BD1009CBDA13F56BE8085C477035173CBF3550B96596A6 DUP7 DUP4 PUSH1 0x40 MLOAD PUSH2 0x89D SWAP3 SWAP2 SWAP1 PUSH2 0x134D JUMP JUMPDEST PUSH1 0x40 MLOAD DUP1 SWAP2 SUB SWAP1 LOG2 POP JUMPDEST POP POP POP POP JUMP JUMPDEST PUSH0 PUSH1 0x2 DUP4 PUSH1 0xFF AND GT ISZERO PUSH2 0x8BE JUMPI PUSH0 DUP1 REVERT JUMPDEST PUSH1 0x2 DUP3 PUSH1 0xFF AND GT ISZERO PUSH2 0x8CE JUMPI PUSH0 DUP1 REVERT JUMPDEST DUP2 PUSH1 0xFF AND DUP4 PUSH1 0xFF AND SUB PUSH2 0x8E3 JUMPI PUSH0 SWAP1 POP PUSH2 0x946 JUMP JUMPDEST DUP2 PUSH1 0xFF AND DUP4 PUSH1 0xFF AND GT ISZERO PUSH2 0x904 JUMPI DUP2 DUP4 PUSH2 0x8FD SWAP2 SWAP1 PUSH2 0x1374 JUMP JUMPDEST SWAP1 POP PUSH2 0x946 JUMP JUMPDEST PUSH1 0x2 DUP4 DUP4 PUSH2 0x912 SWAP2 SWAP1 PUSH2 0x1374 JUMP JUMPDEST PUSH1 0xFF AND SUB PUSH2 0x923 JUMPI PUSH1 0x1 SWAP1 POP PUSH2 0x946 JUMP JUMPDEST PUSH1 0x1 DUP4 DUP4 PUSH2 0x931 SWAP2 SWAP1 PUSH2 0x1374 JUMP JUMPDEST PUSH1 0xFF AND SUB PUSH2 0x942 JUMPI PUSH1 0x2 SWAP1 POP PUSH2 0x946 JUMP JUMPDEST PUSH0 SWAP1 POP JUMPDEST SWAP3 SWAP2 POP POP JUMP JUMPDEST PUSH0 PUSH1 0x40 MLOAD SWAP1 POP SWAP1 JUMP JUMPDEST PUSH0 DUP1 REVERT JUMPDEST PUSH0 DUP1 REVERT JUMPDEST PUSH0 PUSH20 0xFFFFFFFFFFFFFFFFFFFFFFFFFFFFFFFFFFFFFFFF DUP3 AND SWAP1 POP SWAP2 SWAP1 POP JUMP JUMPDEST PUSH0 PUSH2 0x986 DUP3 PUSH2 0x95D JUMP JUMPDEST SWAP1 POP SWAP2 SWAP1 POP JUMP JUMPDEST PUSH2 0x996 DUP2 PUSH2 0x97C JUMP JUMPDEST DUP2 EQ PUSH2 0x9A0 JUMPI PUSH0 DUP1 REVERT JUMPDEST POP JUMP JUMPDEST PUSH0 DUP2 CALLDATALOAD SWAP1 POP PUSH2 0x9B1 DUP2 PUSH2 0x98D JUMP JUMPDEST SWAP3 SWAP2 POP POP JUMP JUMPDEST PUSH0 PUSH1 0x20 DUP3 DUP5 SUB SLT ISZERO PUSH2 0x9CC JUMPI PUSH2 0x9CB PUSH2 0x955 JUMP JUMPDEST JUMPDEST PUSH0 PUSH2 0x9D9 DUP5 DUP3 DUP6 ADD PUSH2 0x9A3 JUMP JUMPDEST SWAP2 POP POP SWAP3 SWAP2 POP POP JUMP JUMPDEST PUSH0 DUP2 ISZERO ISZERO SWAP1 POP SWAP2 SWAP1 POP JUMP JUMPDEST PUSH2 0x9F6 DUP2 PUSH2 0x9E2 JUMP JUMPDEST DUP3 MSTORE POP POP JUMP JUMPDEST PUSH0 PUSH1 0x20 DUP3 ADD SWAP1 POP PUSH2 0xA0F PUSH0 DUP4 ADD DUP5 PUSH2 0x9ED JUMP JUMPDEST SWAP3 SWAP2 POP POP JUMP JUMPDEST PUSH0 DUP2 MLOAD SWAP1 POP SWAP2 SWAP1 POP JUMP JUMPDEST PUSH0 DUP3 DUP3 MSTORE PUSH1 0x20 DUP3 ADD SWAP1 POP SWAP3 SWAP2 POP POP JUMP JUMPDEST DUP3 DUP2 DUP4 MCOPY PUSH0 DUP4 DUP4 ADD MSTORE POP POP POP JUMP JUMPDEST PUSH0 PUSH1 0x1F NOT PUSH1 0x1F DUP4 ADD AND SWAP1 POP SWAP2 SWAP1 POP JUMP JUMPDEST PUSH0 PUSH2 0xA57 DUP3 PUSH2 0xA15 JUMP JUMPDEST PUSH2 0xA61 DUP2 DUP6 PUSH2 0xA1F JUMP JUMPDEST SWAP4 POP PUSH2 0xA71 DUP2 DUP6 PUSH1 0x20 DUP7 ADD PUSH2 0xA2F JUMP JUMPDEST PUSH2 0xA7A DUP2 PUSH2 0xA3D JUMP JUMPDEST DUP5 ADD SWAP2 POP POP SWAP3 SWAP2 POP POP JUMP JUMPDEST PUSH0 PUSH1 0xFF DUP3 AND SWAP1 POP SWAP2 SWAP1 POP JUMP JUMPDEST PUSH2 0xA9A DUP2 PUSH2 0xA85 JUMP JUMPDEST DUP3 MSTORE POP POP JUMP JUMPDEST PUSH0 DUP2 SWAP1 POP SWAP2 SWAP1 POP JUMP JUMPDEST PUSH2 0xAB2 DUP2 PUSH2 0xAA0 JUMP JUMPDEST DUP3 MSTORE POP POP JUMP JUMPDEST PUSH0 PUSH1 0x80 DUP3 ADD SWAP1 POP DUP2 DUP2 SUB PUSH0 DUP4 ADD MSTORE PUSH2 0xAD0 DUP2 DUP8 PUSH2 0xA4D JUMP JUMPDEST SWAP1 POP PUSH2 0xADF PUSH1 0x20 DUP4 ADD DUP7 PUSH2 0xA91 JUMP JUMPDEST PUSH2 0xAEC PUSH1 0x40 DUP4 ADD DUP6 PUSH2 0xA91 JUMP JUMPDEST PUSH2 0xAF9 PUSH1 0x60 DUP4 ADD DUP5 PUSH2 0xAA9 JUMP JUMPDEST SWAP6 SWAP5 POP POP POP POP POP JUMP JUMPDEST PUSH0 DUP1 REVERT JUMPDEST PUSH0 DUP1 REVERT JUMPDEST PUSH32 0x4E487B7100000000000000000000000000000000000000000000000000000000 PUSH0 MSTORE PUSH1 0x41 PUSH1 0x4 MSTORE PUSH1 0x24 PUSH0 REVERT JUMPDEST PUSH2 0xB40 DUP3 PUSH2 0xA3D JUMP JUMPDEST DUP2 ADD DUP2 DUP2 LT PUSH8 0xFFFFFFFFFFFFFFFF DUP3 GT OR ISZERO PUSH2 0xB5F JUMPI PUSH2 0xB5E PUSH2 0xB0A JUMP JUMPDEST JUMPDEST DUP1 PUSH1 0x40 MSTORE POP POP POP JUMP JUMPDEST PUSH0 PUSH2 0xB71 PUSH2 0x94C JUMP JUMPDEST SWAP1 POP PUSH2 0xB7D DUP3 DUP3 PUSH2 0xB37 JUMP JUMPDEST SWAP2 SWAP1 POP JUMP JUMPDEST PUSH0 PUSH8 0xFFFFFFFFFFFFFFFF DUP3 GT ISZERO PUSH2 0xB9C JUMPI PUSH2 0xB9B PUSH2 0xB0A JUMP JUMPDEST JUMPDEST PUSH2 0xBA5 DUP3 PUSH2 0xA3D JUMP JUMPDEST SWAP1 POP PUSH1 0x20 DUP2 ADD SWAP1 POP SWAP2 SWAP1 POP JUMP JUMPDEST DUP3 DUP2 DUP4 CALLDATACOPY PUSH0 DUP4 DUP4 ADD MSTORE POP POP POP JUMP JUMPDEST PUSH0 PUSH2 0xBD2 PUSH2 0xBCD DUP5 PUSH2 0xB82 JUMP JUMPDEST PUSH2 0xB68 JUMP JUMPDEST SWAP1 POP DUP3 DUP2 MSTORE PUSH1 0x20 DUP2 ADD DUP5 DUP5 DUP5 ADD GT ISZERO PUSH2 0xBEE JUMPI PUSH2 0xBED PUSH2 0xB06 JUMP JUMPDEST JUMPDEST PUSH2 0xBF9 DUP5 DUP3 DUP6 PUSH2 0xBB2 JUMP JUMPDEST POP SWAP4 SWAP3 POP POP POP JUMP JUMPDEST PUSH0 DUP3 PUSH1 0x1F DUP4 ADD SLT PUSH2 0xC15 JUMPI PUSH2 0xC14 PUSH2 0xB02 JUMP JUMPDEST JUMPDEST DUP2 CALLDATALOAD PUSH2 0xC25 DUP5 DUP3 PUSH1 0x20 DUP7 ADD PUSH2 0xBC0 JUMP JUMPDEST SWAP2 POP POP SWAP3 SWAP2 POP POP JUMP JUMPDEST PUSH0 PUSH1 0x20 DUP3 DUP5 SUB SLT ISZERO PUSH2 0xC43 JUMPI PUSH2 0xC42 PUSH2 0x955 JUMP JUMPDEST JUMPDEST PUSH0 DUP3 ADD CALLDATALOAD PUSH8 0xFFFFFFFFFFFFFFFF DUP2 GT ISZERO PUSH2 0xC60 JUMPI PUSH2 0xC5F PUSH2 0x959 JUMP JUMPDEST JUMPDEST PUSH2 0xC6C DUP5 DUP3 DUP6 ADD PUSH2 0xC01 JUMP JUMPDEST SWAP2 POP POP SWAP3 SWAP2 POP POP JUMP JUMPDEST PUSH2 0xC7E DUP2 PUSH2 0xA85 JUMP JUMPDEST DUP2 EQ PUSH2 0xC88 JUMPI PUSH0 DUP1 REVERT JUMPDEST POP JUMP JUMPDEST PUSH0 DUP2 CALLDATALOAD SWAP1 POP PUSH2 0xC99 DUP2 PUSH2 0xC75 JUMP JUMPDEST SWAP3 SWAP2 POP POP JUMP JUMPDEST PUSH0 PUSH1 0x20 DUP3 DUP5 SUB SLT ISZERO PUSH2 0xCB4 JUMPI PUSH2 0xCB3 PUSH2 0x955 JUMP JUMPDEST JUMPDEST PUSH0 PUSH2 0xCC1 DUP5 DUP3 DUP6 ADD PUSH2 0xC8B JUMP JUMPDEST SWAP2 POP POP SWAP3 SWAP2 POP POP JUMP JUMPDEST PUSH32 0x4E487B7100000000000000000000000000000000000000000000000000000000 PUSH0 MSTORE PUSH1 0x32 PUSH1 0x4 MSTORE PUSH1 0x24 PUSH0 REVERT JUMPDEST PUSH32 0x4E487B7100000000000000000000000000000000000000000000000000000000 PUSH0 MSTORE PUSH1 0x22 PUSH1 0x4 MSTORE PUSH1 0x24 PUSH0 REVERT JUMPDEST PUSH0 PUSH1 0x2 DUP3 DIV SWAP1 POP PUSH1 0x1 DUP3 AND DUP1 PUSH2 0xD3B JUMPI PUSH1 0x7F DUP3 AND SWAP2 POP JUMPDEST PUSH1 0x20 DUP3 LT DUP2 SUB PUSH2 0xD4E JUMPI PUSH2 0xD4D PUSH2 0xCF7 JUMP JUMPDEST JUMPDEST POP SWAP2 SWAP1 POP JUMP JUMPDEST PUSH32 0x74776F20706C61796572206F6E6C790000000000000000000000000000000000 PUSH0 DUP3 ADD MSTORE POP JUMP JUMPDEST PUSH0 PUSH2 0xD88 PUSH1 0xF DUP4 PUSH2 0xA1F JUMP JUMPDEST SWAP2 POP PUSH2 0xD93 DUP3 PUSH2 0xD54 JUMP JUMPDEST PUSH1 0x20 DUP3 ADD SWAP1 POP SWAP2 SWAP1 POP JUMP JUMPDEST PUSH0 PUSH1 0x20 DUP3 ADD SWAP1 POP DUP2 DUP2 SUB PUSH0 DUP4 ADD MSTORE PUSH2 0xDB5 DUP2 PUSH2 0xD7C JUMP JUMPDEST SWAP1 POP SWAP2 SWAP1 POP JUMP JUMPDEST PUSH0 DUP2 SWAP1 POP SWAP3 SWAP2 POP POP JUMP JUMPDEST PUSH0 PUSH2 0xDD0 DUP3 PUSH2 0xA15 JUMP JUMPDEST PUSH2 0xDDA DUP2 DUP6 PUSH2 0xDBC JUMP JUMPDEST SWAP4 POP PUSH2 0xDEA DUP2 DUP6 PUSH1 0x20 DUP7 ADD PUSH2 0xA2F JUMP JUMPDEST DUP1 DUP5 ADD SWAP2 POP POP SWAP3 SWAP2 POP POP JUMP JUMPDEST PUSH0 PUSH2 0xE01 DUP3 DUP5 PUSH2 0xDC6 JUMP JUMPDEST SWAP2 POP DUP2 SWAP1 POP SWAP3 SWAP2 POP POP JUMP JUMPDEST PUSH0 DUP2 SWAP1 POP DUP2 PUSH0 MSTORE PUSH1 0x20 PUSH0 KECCAK256 SWAP1 POP SWAP2 SWAP1 POP JUMP JUMPDEST PUSH0 DUP2 SLOAD PUSH2 0xE2A DUP2 PUSH2 0xD24 JUMP JUMPDEST PUSH2 0xE34 DUP2 DUP7 PUSH2 0xDBC JUMP JUMPDEST SWAP5 POP PUSH1 0x1 DUP3 AND PUSH0 DUP2 EQ PUSH2 0xE4E JUMPI PUSH1 0x1 DUP2 EQ PUSH2 0xE63 JUMPI PUSH2 0xE95 JUMP JUMPDEST PUSH1 0xFF NOT DUP4 AND DUP7 MSTORE DUP2 ISZERO ISZERO DUP3 MUL DUP7 ADD SWAP4 POP PUSH2 0xE95 JUMP JUMPDEST PUSH2 0xE6C DUP6 PUSH2 0xE0C JUMP JUMPDEST PUSH0 JUMPDEST DUP4 DUP2 LT ISZERO PUSH2 0xE8D JUMPI DUP2 SLOAD DUP2 DUP10 ADD MSTORE PUSH1 0x1 DUP3 ADD SWAP2 POP PUSH1 0x20 DUP2 ADD SWAP1 POP PUSH2 0xE6E JUMP JUMPDEST DUP4 DUP9 ADD SWAP6 POP POP POP JUMPDEST POP POP POP SWAP3 SWAP2 POP POP JUMP JUMPDEST PUSH0 PUSH2 0xEA9 DUP3 DUP5 PUSH2 0xE1E JUMP JUMPDEST SWAP2 POP DUP2 SWAP1 POP SWAP3 SWAP2 POP POP JUMP JUMPDEST PUSH32 0x20706C6179657220616C72656164792072656769737465720000000000000000 DUP2 MSTORE POP JUMP JUMPDEST PUSH0 PUSH2 0xEE5 DUP3 DUP5 PUSH2 0xDC6 JUMP JUMPDEST SWAP2 POP PUSH2 0xEF0 DUP3 PUSH2 0xEB4 JUMP JUMPDEST PUSH1 0x18 DUP3 ADD SWAP2 POP DUP2 SWAP1 POP SWAP3 SWAP2 POP POP JUMP JUMPDEST PUSH0 PUSH1 0x20 DUP3 ADD SWAP1 POP DUP2 DUP2 SUB PUSH0 DUP4 ADD MSTORE PUSH2 0xF17 DUP2 DUP5 PUSH2 0xA4D JUMP JUMPDEST SWAP1 POP SWAP3 SWAP2 POP POP JUMP JUMPDEST PUSH0 PUSH1 0x20 PUSH1 0x1F DUP4 ADD DIV SWAP1 POP SWAP2 SWAP1 POP JUMP JUMPDEST PUSH0 DUP3 DUP3 SHL SWAP1 POP SWAP3 SWAP2 POP POP JUMP JUMPDEST PUSH0 PUSH1 0x8 DUP4 MUL PUSH2 0xF69 PUSH32 0xFFFFFFFFFFFFFFFFFFFFFFFFFFFFFFFFFFFFFFFFFFFFFFFFFFFFFFFFFFFFFFFF DUP3 PUSH2 0xF2E JUMP JUMPDEST PUSH2 0xF73 DUP7 DUP4 PUSH2 0xF2E JUMP JUMPDEST SWAP6 POP DUP1 NOT DUP5 AND SWAP4 POP DUP1 DUP7 AND DUP5 OR SWAP3 POP POP POP SWAP4 SWAP3 POP POP POP JUMP JUMPDEST PUSH0 DUP2 SWAP1 POP SWAP2 SWAP1 POP JUMP JUMPDEST PUSH0 PUSH2 0xFAE PUSH2 0xFA9 PUSH2 0xFA4 DUP5 PUSH2 0xAA0 JUMP JUMPDEST PUSH2 0xF8B JUMP JUMPDEST PUSH2 0xAA0 JUMP JUMPDEST SWAP1 POP SWAP2 SWAP1 POP JUMP JUMPDEST PUSH0 DUP2 SWAP1 POP SWAP2 SWAP1 POP JUMP JUMPDEST PUSH2 0xFC7 DUP4 PUSH2 0xF94 JUMP JUMPDEST PUSH2 0xFDB PUSH2 0xFD3 DUP3 PUSH2 0xFB5 JUMP JUMPDEST DUP5 DUP5 SLOAD PUSH2 0xF3A JUMP JUMPDEST DUP3 SSTORE POP POP POP POP JUMP JUMPDEST PUSH0 SWAP1 JUMP JUMPDEST PUSH2 0xFEF PUSH2 0xFE3 JUMP JUMPDEST PUSH2 0xFFA DUP2 DUP5 DUP5 PUSH2 0xFBE JUMP JUMPDEST POP POP POP JUMP JUMPDEST JUMPDEST DUP2 DUP2 LT ISZERO PUSH2 0x101D JUMPI PUSH2 0x1012 PUSH0 DUP3 PUSH2 0xFE7 JUMP JUMPDEST PUSH1 0x1 DUP2 ADD SWAP1 POP PUSH2 0x1000 JUMP JUMPDEST POP POP JUMP JUMPDEST PUSH1 0x1F DUP3 GT ISZERO PUSH2 0x1062 JUMPI PUSH2 0x1033 DUP2 PUSH2 0xE0C JUMP JUMPDEST PUSH2 0x103C DUP5 PUSH2 0xF1F JUMP JUMPDEST DUP2 ADD PUSH1 0x20 DUP6 LT ISZERO PUSH2 0x104B JUMPI DUP2 SWAP1 POP JUMPDEST PUSH2 0x105F PUSH2 0x1057 DUP6 PUSH2 0xF1F JUMP JUMPDEST DUP4 ADD DUP3 PUSH2 0xFFF JUMP JUMPDEST POP POP JUMPDEST POP POP POP JUMP JUMPDEST PUSH0 DUP3 DUP3 SHR SWAP1 POP SWAP3 SWAP2 POP POP JUMP JUMPDEST PUSH0 PUSH2 0x1082 PUSH0 NOT DUP5 PUSH1 0x8 MUL PUSH2 0x1067 JUMP JUMPDEST NOT DUP1 DUP4 AND SWAP2 POP POP SWAP3 SWAP2 POP POP JUMP JUMPDEST PUSH0 PUSH2 0x109A DUP4 DUP4 PUSH2 0x1073 JUMP JUMPDEST SWAP2 POP DUP3 PUSH1 0x2 MUL DUP3 OR SWAP1 POP SWAP3 SWAP2 POP POP JUMP JUMPDEST PUSH2 0x10B3 DUP3 PUSH2 0xA15 JUMP JUMPDEST PUSH8 0xFFFFFFFFFFFFFFFF DUP2 GT ISZERO PUSH2 0x10CC JUMPI PUSH2 0x10CB PUSH2 0xB0A JUMP JUMPDEST JUMPDEST PUSH2 0x10D6 DUP3 SLOAD PUSH2 0xD24 JUMP JUMPDEST PUSH2 0x10E1 DUP3 DUP3 DUP6 PUSH2 0x1021 JUMP JUMPDEST PUSH0 PUSH1 0x20 SWAP1 POP PUSH1 0x1F DUP4 GT PUSH1 0x1 DUP2 EQ PUSH2 0x1112 JUMPI PUSH0 DUP5 ISZERO PUSH2 0x1100 JUMPI DUP3 DUP8 ADD MLOAD SWAP1 POP JUMPDEST PUSH2 0x110A DUP6 DUP3 PUSH2 0x108F JUMP JUMPDEST DUP7 SSTORE POP PUSH2 0x1171 JUMP JUMPDEST PUSH1 0x1F NOT DUP5 AND PUSH2 0x1120 DUP7 PUSH2 0xE0C JUMP JUMPDEST PUSH0 JUMPDEST DUP3 DUP2 LT ISZERO PUSH2 0x1147 JUMPI DUP5 DUP10 ADD MLOAD DUP3 SSTORE PUSH1 0x1 DUP3 ADD SWAP2 POP PUSH1 0x20 DUP6 ADD SWAP5 POP PUSH1 0x20 DUP2 ADD SWAP1 POP PUSH2 0x1122 JUMP JUMPDEST DUP7 DUP4 LT ISZERO PUSH2 0x1164 JUMPI DUP5 DUP10 ADD MLOAD PUSH2 0x1160 PUSH1 0x1F DUP10 AND DUP3 PUSH2 0x1073 JUMP JUMPDEST DUP4 SSTORE POP JUMPDEST PUSH1 0x1 PUSH1 0x2 DUP9 MUL ADD DUP9 SSTORE POP POP POP JUMPDEST POP POP POP POP POP POP JUMP JUMPDEST PUSH32 0x4E487B7100000000000000000000000000000000000000000000000000000000 PUSH0 MSTORE PUSH1 0x11 PUSH1 0x4 MSTORE PUSH1 0x24 PUSH0 REVERT JUMPDEST PUSH0 PUSH2 0x11B0 DUP3 PUSH2 0xA85 JUMP JUMPDEST SWAP2 POP PUSH1 0xFF DUP3 SUB PUSH2 0x11C3 JUMPI PUSH2 0x11C2 PUSH2 0x1179 JUMP JUMPDEST JUMPDEST PUSH1 0x1 DUP3 ADD SWAP1 POP SWAP2 SWAP1 POP JUMP JUMPDEST PUSH32 0x6F6E6C7920726567697374657220706C617965722063616E20646F0000000000 PUSH0 DUP3 ADD MSTORE POP JUMP JUMPDEST PUSH0 PUSH2 0x1202 PUSH1 0x1B DUP4 PUSH2 0xA1F JUMP JUMPDEST SWAP2 POP PUSH2 0x120D DUP3 PUSH2 0x11CE JUMP JUMPDEST PUSH1 0x20 DUP3 ADD SWAP1 POP SWAP2 SWAP1 POP JUMP JUMPDEST PUSH0 PUSH1 0x20 DUP3 ADD SWAP1 POP DUP2 DUP2 SUB PUSH0 DUP4 ADD MSTORE PUSH2 0x122F DUP2 PUSH2 0x11F6 JUMP JUMPDEST SWAP1 POP SWAP2 SWAP1 POP JUMP JUMPDEST PUSH32 0x67616D652066696E697368656400000000000000000000000000000000000000 PUSH0 DUP3 ADD MSTORE POP JUMP JUMPDEST PUSH0 PUSH2 0x126A PUSH1 0xD DUP4 PUSH2 0xA1F JUMP JUMPDEST SWAP2 POP PUSH2 0x1275 DUP3 PUSH2 0x1236 JUMP JUMPDEST PUSH1 0x20 DUP3 ADD SWAP1 POP SWAP2 SWAP1 POP JUMP JUMPDEST PUSH0 PUSH1 0x20 DUP3 ADD SWAP1 POP DUP2 DUP2 SUB PUSH0 DUP4 ADD MSTORE PUSH2 0x1297 DUP2 PUSH2 0x125E JUMP JUMPDEST SWAP1 POP SWAP2 SWAP1 POP JUMP JUMPDEST PUSH32 0x706C656173652077616974000000000000000000000000000000000000000000 PUSH0 DUP3 ADD MSTORE POP JUMP JUMPDEST PUSH0 PUSH2 0x12D2 PUSH1 0xB DUP4 PUSH2 0xA1F JUMP JUMPDEST SWAP2 POP PUSH2 0x12DD DUP3 PUSH2 0x129E JUMP JUMPDEST PUSH1 0x20 DUP3 ADD SWAP1 POP SWAP2 SWAP1 POP JUMP JUMPDEST PUSH0 PUSH1 0x20 DUP3 ADD SWAP1 POP DUP2 DUP2 SUB PUSH0 DUP4 ADD MSTORE PUSH2 0x12FF DUP2 PUSH2 0x12C6 JUMP JUMPDEST SWAP1 POP SWAP2 SWAP1 POP JUMP JUMPDEST PUSH0 PUSH2 0x1310 DUP3 PUSH2 0xAA0 JUMP JUMPDEST SWAP2 POP PUSH32 0xFFFFFFFFFFFFFFFFFFFFFFFFFFFFFFFFFFFFFFFFFFFFFFFFFFFFFFFFFFFFFFFF DUP3 SUB PUSH2 0x1342 JUMPI PUSH2 0x1341 PUSH2 0x1179 JUMP JUMPDEST JUMPDEST PUSH1 0x1 DUP3 ADD SWAP1 POP SWAP2 SWAP1 POP JUMP JUMPDEST PUSH0 PUSH1 0x40 DUP3 ADD SWAP1 POP PUSH2 0x1360 PUSH0 DUP4 ADD DUP6 PUSH2 0xA91 JUMP JUMPDEST PUSH2 0x136D PUSH1 0x20 DUP4 ADD DUP5 PUSH2 0xA91 JUMP JUMPDEST SWAP4 SWAP3 POP POP POP JUMP JUMPDEST PUSH0 PUSH2 0x137E DUP3 PUSH2 0xA85 JUMP JUMPDEST SWAP2 POP PUSH2 0x1389 DUP4 PUSH2 0xA85 JUMP JUMPDEST SWAP3 POP DUP3 DUP3 SUB SWAP1 POP PUSH1 0xFF DUP2 GT ISZERO PUSH2 0x13A2 JUMPI PUSH2 0x13A1 PUSH2 0x1179 JUMP JUMPDEST JUMPDEST SWAP3 SWAP2 POP POP JUMP INVALID LOG2 PUSH5 0x6970667358 0x22 SLT KECCAK256 PUSH27 0xAEBF61C01BBC338556451A9808281695BD34429494DA9895129A1E SWAP12 SWAP7 0x26 MOD PUSH5 0x736F6C6343 STOP ADDMOD BYTE STOP CALLER "
				},
				"gasEstimates": {
					"creation": {
						"codeDepositCost": "1017200",
						"executionCost": "1052",
						"totalCost": "1018252"
					},
					"external": {
						"choose(uint8)": "infinite",
						"isPlayer(address)": "5067",
						"register(string)": "infinite",
						"winner()": "infinite"
					}
				},
				"methodIdentifiers": {
					"choose(uint8)": "f94e349d",
					"isPlayer(address)": "09c95e10",
					"register(string)": "f2c298be",
					"winner()": "dfbf53ae"
				}
			},
			"storageLayout": {
				"storage": [
					{
						"astId": 94,
						"contract": "basic/Divergence.sol:Divergence",
						"label": "userCount",
						"offset": 0,
						"slot": "0",
						"type": "t_uint8"
					},
					{
						"astId": 99,
						"contract": "basic/Divergence.sol:Divergence",
						"label": "playerList",
						"offset": 0,
						"slot": "1",
						"type": "t_array(t_struct(Player)90_storage)2_storage"
					},
					{
						"astId": 101,
						"contract": "basic/Divergence.sol:Divergence",
						"label": "isFinished",
						"offset": 0,
						"slot": "9",
						"type": "t_bool"
					},
					{
						"astId": 103,
						"contract": "basic/Divergence.sol:Divergence",
						"label": "winnerIndex",
						"offset": 1,
						"slot": "9",
						"type": "t_uint8"
					}
				],
				"types": {
					"t_address": {
						"encoding": "inplace",
						"label": "address",
						"numberOfBytes": "20"
					},
					"t_array(t_struct(Player)90_storage)2_storage": {
						"base": "t_struct(Player)90_storage",
						"encoding": "inplace",
						"label": "struct Player[2]",
						"numberOfBytes": "256"
					},
					"t_bool": {
						"encoding": "inplace",
						"label": "bool",
						"numberOfBytes": "1"
					},
					"t_string_storage": {
						"encoding": "bytes",
						"label": "string",
						"numberOfBytes": "32"
					},
					"t_struct(Player)90_storage": {
						"encoding": "inplace",
						"label": "struct Player",
						"members": [
							{
								"astId": 83,
								"contract": "basic/Divergence.sol:Divergence",
								"label": "user",
								"offset": 0,
								"slot": "0",
								"type": "t_address"
							},
							{
								"astId": 85,
								"contract": "basic/Divergence.sol:Divergence",
								"label": "name",
								"offset": 0,
								"slot": "1",
								"type": "t_string_storage"
							},
							{
								"astId": 87,
								"contract": "basic/Divergence.sol:Divergence",
								"label": "opt",
								"offset": 0,
								"slot": "2",
								"type": "t_uint8"
							},
							{
								"astId": 89,
								"contract": "basic/Divergence.sol:Divergence",
								"label": "round",
								"offset": 0,
								"slot": "3",
								"type": "t_uint256"
							}
						],
						"numberOfBytes": "128"
					},
					"t_uint256": {
						"encoding": "inplace",
						"label": "uint256",
						"numberOfBytes": "32"
					},
					"t_uint8": {
						"encoding": "inplace",
						"label": "uint8",
						"numberOfBytes": "1"
					}
				}
			},
			"userdoc": {
				"kind": "user",
				"methods": {},
				"version": 1
			}
		}
	}
}